{
  "address": "0xEAcb64034dbAC6aE8305631B1efC3C7F9D6bD73d",
  "abi": [
    {
      "anonymous": false,
      "inputs": [
        {
          "indexed": true,
          "internalType": "address",
          "name": "owner",
          "type": "address"
        },
        {
          "indexed": true,
          "internalType": "address",
          "name": "spender",
          "type": "address"
        },
        {
          "indexed": false,
          "internalType": "uint256",
          "name": "value",
          "type": "uint256"
        }
      ],
      "name": "Approval",
      "type": "event"
    },
    {
      "anonymous": false,
      "inputs": [
        {
          "indexed": false,
          "internalType": "address",
          "name": "account",
          "type": "address"
        }
      ],
      "name": "Paused",
      "type": "event"
    },
    {
      "anonymous": false,
      "inputs": [
        {
          "indexed": true,
          "internalType": "bytes32",
          "name": "role",
          "type": "bytes32"
        },
        {
          "indexed": true,
          "internalType": "bytes32",
          "name": "previousAdminRole",
          "type": "bytes32"
        },
        {
          "indexed": true,
          "internalType": "bytes32",
          "name": "newAdminRole",
          "type": "bytes32"
        }
      ],
      "name": "RoleAdminChanged",
      "type": "event"
    },
    {
      "anonymous": false,
      "inputs": [
        {
          "indexed": true,
          "internalType": "bytes32",
          "name": "role",
          "type": "bytes32"
        },
        {
          "indexed": true,
          "internalType": "address",
          "name": "account",
          "type": "address"
        },
        {
          "indexed": true,
          "internalType": "address",
          "name": "sender",
          "type": "address"
        }
      ],
      "name": "RoleGranted",
      "type": "event"
    },
    {
      "anonymous": false,
      "inputs": [
        {
          "indexed": true,
          "internalType": "bytes32",
          "name": "role",
          "type": "bytes32"
        },
        {
          "indexed": true,
          "internalType": "address",
          "name": "account",
          "type": "address"
        },
        {
          "indexed": true,
          "internalType": "address",
          "name": "sender",
          "type": "address"
        }
      ],
      "name": "RoleRevoked",
      "type": "event"
    },
    {
      "anonymous": false,
      "inputs": [
        {
          "indexed": true,
          "internalType": "address",
          "name": "from",
          "type": "address"
        },
        {
          "indexed": true,
          "internalType": "address",
          "name": "to",
          "type": "address"
        },
        {
          "indexed": false,
          "internalType": "uint256",
          "name": "value",
          "type": "uint256"
        }
      ],
      "name": "Transfer",
      "type": "event"
    },
    {
      "anonymous": false,
      "inputs": [
        {
          "indexed": false,
          "internalType": "address",
          "name": "account",
          "type": "address"
        }
      ],
      "name": "Unpaused",
      "type": "event"
    },
    {
      "inputs": [],
      "name": "DEFAULT_ADMIN_ROLE",
      "outputs": [
        {
          "internalType": "bytes32",
          "name": "",
          "type": "bytes32"
        }
      ],
      "stateMutability": "view",
      "type": "function"
    },
    {
      "inputs": [],
      "name": "MINTER_ROLE",
      "outputs": [
        {
          "internalType": "bytes32",
          "name": "",
          "type": "bytes32"
        }
      ],
      "stateMutability": "view",
      "type": "function"
    },
    {
      "inputs": [],
      "name": "PAUSER_ROLE",
      "outputs": [
        {
          "internalType": "bytes32",
          "name": "",
          "type": "bytes32"
        }
      ],
      "stateMutability": "view",
      "type": "function"
    },
    {
      "inputs": [
        {
          "internalType": "uint256",
          "name": "cap",
          "type": "uint256"
        }
      ],
      "name": "__initializeNVM",
      "outputs": [],
      "stateMutability": "nonpayable",
      "type": "function"
    },
    {
      "inputs": [
        {
          "internalType": "address",
          "name": "owner",
          "type": "address"
        },
        {
          "internalType": "address",
          "name": "spender",
          "type": "address"
        }
      ],
      "name": "allowance",
      "outputs": [
        {
          "internalType": "uint256",
          "name": "",
          "type": "uint256"
        }
      ],
      "stateMutability": "view",
      "type": "function"
    },
    {
      "inputs": [
        {
          "internalType": "address",
          "name": "spender",
          "type": "address"
        },
        {
          "internalType": "uint256",
          "name": "amount",
          "type": "uint256"
        }
      ],
      "name": "approve",
      "outputs": [
        {
          "internalType": "bool",
          "name": "",
          "type": "bool"
        }
      ],
      "stateMutability": "nonpayable",
      "type": "function"
    },
    {
      "inputs": [
        {
          "internalType": "address",
          "name": "account",
          "type": "address"
        }
      ],
      "name": "balanceOf",
      "outputs": [
        {
          "internalType": "uint256",
          "name": "",
          "type": "uint256"
        }
      ],
      "stateMutability": "view",
      "type": "function"
    },
    {
      "inputs": [
        {
          "internalType": "uint256",
          "name": "amount",
          "type": "uint256"
        }
      ],
      "name": "burn",
      "outputs": [],
      "stateMutability": "nonpayable",
      "type": "function"
    },
    {
      "inputs": [
        {
          "internalType": "address",
          "name": "account",
          "type": "address"
        },
        {
          "internalType": "uint256",
          "name": "amount",
          "type": "uint256"
        }
      ],
      "name": "burnFrom",
      "outputs": [],
      "stateMutability": "nonpayable",
      "type": "function"
    },
    {
      "inputs": [],
      "name": "cap",
      "outputs": [
        {
          "internalType": "uint256",
          "name": "",
          "type": "uint256"
        }
      ],
      "stateMutability": "view",
      "type": "function"
    },
    {
      "inputs": [],
      "name": "decimals",
      "outputs": [
        {
          "internalType": "uint8",
          "name": "",
          "type": "uint8"
        }
      ],
      "stateMutability": "view",
      "type": "function"
    },
    {
      "inputs": [
        {
          "internalType": "address",
          "name": "spender",
          "type": "address"
        },
        {
          "internalType": "uint256",
          "name": "subtractedValue",
          "type": "uint256"
        }
      ],
      "name": "decreaseAllowance",
      "outputs": [
        {
          "internalType": "bool",
          "name": "",
          "type": "bool"
        }
      ],
      "stateMutability": "nonpayable",
      "type": "function"
    },
    {
      "inputs": [
        {
          "internalType": "bytes32",
          "name": "role",
          "type": "bytes32"
        }
      ],
      "name": "getRoleAdmin",
      "outputs": [
        {
          "internalType": "bytes32",
          "name": "",
          "type": "bytes32"
        }
      ],
      "stateMutability": "view",
      "type": "function"
    },
    {
      "inputs": [
        {
          "internalType": "bytes32",
          "name": "role",
          "type": "bytes32"
        },
        {
          "internalType": "uint256",
          "name": "index",
          "type": "uint256"
        }
      ],
      "name": "getRoleMember",
      "outputs": [
        {
          "internalType": "address",
          "name": "",
          "type": "address"
        }
      ],
      "stateMutability": "view",
      "type": "function"
    },
    {
      "inputs": [
        {
          "internalType": "bytes32",
          "name": "role",
          "type": "bytes32"
        }
      ],
      "name": "getRoleMemberCount",
      "outputs": [
        {
          "internalType": "uint256",
          "name": "",
          "type": "uint256"
        }
      ],
      "stateMutability": "view",
      "type": "function"
    },
    {
      "inputs": [
        {
          "internalType": "bytes32",
          "name": "role",
          "type": "bytes32"
        },
        {
          "internalType": "address",
          "name": "account",
          "type": "address"
        }
      ],
      "name": "grantRole",
      "outputs": [],
      "stateMutability": "nonpayable",
      "type": "function"
    },
    {
      "inputs": [
        {
          "internalType": "bytes32",
          "name": "role",
          "type": "bytes32"
        },
        {
          "internalType": "address",
          "name": "account",
          "type": "address"
        }
      ],
      "name": "hasRole",
      "outputs": [
        {
          "internalType": "bool",
          "name": "",
          "type": "bool"
        }
      ],
      "stateMutability": "view",
      "type": "function"
    },
    {
      "inputs": [
        {
          "internalType": "address",
          "name": "spender",
          "type": "address"
        },
        {
          "internalType": "uint256",
          "name": "addedValue",
          "type": "uint256"
        }
      ],
      "name": "increaseAllowance",
      "outputs": [
        {
          "internalType": "bool",
          "name": "",
          "type": "bool"
        }
      ],
      "stateMutability": "nonpayable",
      "type": "function"
    },
    {
      "inputs": [
        {
          "internalType": "string",
          "name": "name",
          "type": "string"
        },
        {
          "internalType": "string",
          "name": "symbol",
          "type": "string"
        }
      ],
      "name": "initialize",
      "outputs": [],
      "stateMutability": "nonpayable",
      "type": "function"
    },
    {
      "inputs": [
        {
          "internalType": "address",
          "name": "to",
          "type": "address"
        },
        {
          "internalType": "uint256",
          "name": "amount",
          "type": "uint256"
        }
      ],
      "name": "mint",
      "outputs": [],
      "stateMutability": "nonpayable",
      "type": "function"
    },
    {
      "inputs": [],
      "name": "name",
      "outputs": [
        {
          "internalType": "string",
          "name": "",
          "type": "string"
        }
      ],
      "stateMutability": "view",
      "type": "function"
    },
    {
      "inputs": [],
      "name": "pause",
      "outputs": [],
      "stateMutability": "nonpayable",
      "type": "function"
    },
    {
      "inputs": [],
      "name": "paused",
      "outputs": [
        {
          "internalType": "bool",
          "name": "",
          "type": "bool"
        }
      ],
      "stateMutability": "view",
      "type": "function"
    },
    {
      "inputs": [
        {
          "internalType": "bytes32",
          "name": "role",
          "type": "bytes32"
        },
        {
          "internalType": "address",
          "name": "account",
          "type": "address"
        }
      ],
      "name": "renounceRole",
      "outputs": [],
      "stateMutability": "nonpayable",
      "type": "function"
    },
    {
      "inputs": [
        {
          "internalType": "bytes32",
          "name": "role",
          "type": "bytes32"
        },
        {
          "internalType": "address",
          "name": "account",
          "type": "address"
        }
      ],
      "name": "revokeRole",
      "outputs": [],
      "stateMutability": "nonpayable",
      "type": "function"
    },
    {
      "inputs": [
        {
          "internalType": "bytes4",
          "name": "interfaceId",
          "type": "bytes4"
        }
      ],
      "name": "supportsInterface",
      "outputs": [
        {
          "internalType": "bool",
          "name": "",
          "type": "bool"
        }
      ],
      "stateMutability": "view",
      "type": "function"
    },
    {
      "inputs": [],
      "name": "symbol",
      "outputs": [
        {
          "internalType": "string",
          "name": "",
          "type": "string"
        }
      ],
      "stateMutability": "view",
      "type": "function"
    },
    {
      "inputs": [],
      "name": "totalSupply",
      "outputs": [
        {
          "internalType": "uint256",
          "name": "",
          "type": "uint256"
        }
      ],
      "stateMutability": "view",
      "type": "function"
    },
    {
      "inputs": [
        {
          "internalType": "address",
          "name": "recipient",
          "type": "address"
        },
        {
          "internalType": "uint256",
          "name": "amount",
          "type": "uint256"
        }
      ],
      "name": "transfer",
      "outputs": [
        {
          "internalType": "bool",
          "name": "",
          "type": "bool"
        }
      ],
      "stateMutability": "nonpayable",
      "type": "function"
    },
    {
      "inputs": [
        {
          "internalType": "address",
          "name": "sender",
          "type": "address"
        },
        {
          "internalType": "address",
          "name": "recipient",
          "type": "address"
        },
        {
          "internalType": "uint256",
          "name": "amount",
          "type": "uint256"
        }
      ],
      "name": "transferFrom",
      "outputs": [
        {
          "internalType": "bool",
          "name": "",
          "type": "bool"
        }
      ],
      "stateMutability": "nonpayable",
      "type": "function"
    },
    {
      "inputs": [],
      "name": "unpause",
      "outputs": [],
      "stateMutability": "nonpayable",
      "type": "function"
    }
  ],
  "transactionHash": "0x60cd083b01666d95c251102ec1f1a3e313ffc9c10390f7fe66fb4c7b43347afd",
  "args": [],
  "solcInputHash": "f75b4441d4d47ea0585c1a1d835b14dd",
  "bytecode": "0x608060405234801561001057600080fd5b506126de806100206000396000f3fe608060405234801561001057600080fd5b50600436106101e55760003560e01c80635c975abb1161010f578063a457c2d7116100a2578063d547741f11610071578063d547741f146103c9578063dd62ed3e146103dc578063e41bf5ea146103ef578063e63ab1e914610402576101e5565b8063a457c2d714610388578063a9059cbb1461039b578063ca15c873146103ae578063d5391393146103c1576101e5565b80639010d07c116100de5780639010d07c1461034557806391d148541461036557806395d89b4114610378578063a217fddf14610380576101e5565b80635c975abb1461030f57806370a082311461031757806379cc67901461032a5780638456cb591461033d576101e5565b8063313ce567116101875780633f4ba83a116101565780633f4ba83a146102ce57806340c10f19146102d657806342966c68146102e95780634cd88b76146102fc576101e5565b8063313ce5671461028b578063355274ea146102a057806336568abe146102a857806339509351146102bb576101e5565b806318160ddd116101c357806318160ddd1461023b57806323b872dd14610250578063248a9ca3146102635780632f2ff15d14610276576101e5565b806301ffc9a7146101ea57806306fdde0314610213578063095ea7b314610228575b600080fd5b6101fd6101f8366004611cac565b61040a565b60405161020a9190611de2565b60405180910390f35b61021b610468565b60405161020a9190611df6565b6101fd610236366004611c28565b6104fa565b610243610518565b60405161020a9190611ded565b6101fd61025e366004611bed565b61051e565b610243610271366004611c51565b6105be565b610289610284366004611c69565b6105d3565b005b6102936105fa565b60405161020a919061259e565b6102436105ff565b6102896102b6366004611c69565b610606565b6101fd6102c9366004611c28565b610628565b610289610677565b6102896102e4366004611c28565b6106c9565b6102896102f7366004611c51565b61071f565b61028961030a366004611cec565b610733565b6101fd6107b3565b610243610325366004611ba1565b6107bd565b610289610338366004611c28565b6107d8565b610289610828565b610358610353366004611c8b565b610878565b60405161020a9190611dce565b6101fd610373366004611c69565b610897565b61021b6108c2565b6102436108d1565b6101fd610396366004611c28565b6108d6565b6101fd6103a9366004611c28565b610951565b6102436103bc366004611c51565b610965565b61024361097c565b6102896103d7366004611c69565b6109a0565b6102436103ea366004611bbb565b6109aa565b6102896103fd366004611c51565b6109d5565b610243610ac7565b60007fffffffff0000000000000000000000000000000000000000000000000000000082167f5a05180f000000000000000000000000000000000000000000000000000000001480610460575061046082610aeb565b90505b919050565b606060cc805461047790612641565b80601f01602080910402602001604051908101604052809291908181526020018280546104a390612641565b80156104f05780601f106104c5576101008083540402835291602001916104f0565b820191906000526020600020905b8154815290600101906020018083116104d357829003601f168201915b5050505050905090565b600061050e610507610b41565b8484610b45565b5060015b92915050565b60cb5490565b600061052b848484610bf9565b6001600160a01b038416600090815260ca602052604081208161054c610b41565b6001600160a01b03166001600160a01b03168152602001908152602001600020549050828110156105985760405162461bcd60e51b815260040161058f9061218e565b60405180910390fd5b6105b3856105a4610b41565b6105ae86856125e3565b610b45565b506001949350505050565b60009081526065602052604090206001015490565b6105dd8282610d21565b60008281526097602052604090206105f59082610d45565b505050565b601290565b6101c35490565b6106108282610d5a565b60008281526097602052604090206105f59082610d9c565b600061050e610635610b41565b848460ca6000610643610b41565b6001600160a01b03908116825260208083019390935260409182016000908120918b16815292529020546105ae91906125ac565b6106a37f65d7a28e3265b37a6474929f336521b332c1681b933f6cb9f3376673440d862a610373610b41565b6106bf5760405162461bcd60e51b815260040161058f90611fe3565b6106c7610db1565b565b6106f57f9f2df0fed2c77648de5860a4cc508cd0818c85b8b8a1ab4ceeef8d981c8956a6610373610b41565b6107115760405162461bcd60e51b815260040161058f906121eb565b61071b8282610e20565b5050565b61073061072a610b41565b82610e2a565b50565b600054610100900460ff168061074c575060005460ff16155b6107685760405162461bcd60e51b815260040161058f90612131565b600054610100900460ff16158015610793576000805460ff1961ff0019909116610100171660011790555b61079d8383610f10565b80156105f5576000805461ff0019169055505050565b61012d5460ff1690565b6001600160a01b0316600090815260c9602052604090205490565b60006107e6836103ea610b41565b9050818110156108085760405162461bcd60e51b815260040161058f90612248565b61081e83610814610b41565b6105ae85856125e3565b6105f58383610e2a565b6108547f65d7a28e3265b37a6474929f336521b332c1681b933f6cb9f3376673440d862a610373610b41565b6108705760405162461bcd60e51b815260040161058f906123f3565b6106c7610fbc565b60008281526097602052604081206108909083611018565b9392505050565b60009182526065602090815260408084206001600160a01b0393909316845291905290205460ff1690565b606060cd805461047790612641565b600081565b60008060ca60006108e5610b41565b6001600160a01b03908116825260208083019390935260409182016000908120918816815292529020549050828110156109315760405162461bcd60e51b815260040161058f90612450565b61094761093c610b41565b856105ae86856125e3565b5060019392505050565b600061050e61095e610b41565b8484610bf9565b600081815260976020526040812061046090611024565b7f9f2df0fed2c77648de5860a4cc508cd0818c85b8b8a1ab4ceeef8d981c8956a681565b610610828261102f565b6001600160a01b03918216600090815260ca6020908152604080832093909416825291909152205490565b600054610100900460ff16806109ee575060005460ff16155b610a0a5760405162461bcd60e51b815260040161058f90612131565b600054610100900460ff16158015610a35576000805460ff1961ff0019909116610100171660011790555b610aa96040518060400160405280600b81526020017f4e6f76656d20546f6b656e0000000000000000000000000000000000000000008152506040518060400160405280600381526020017f4e564d0000000000000000000000000000000000000000000000000000000000815250610f10565b610ab28261104e565b801561071b576000805461ff00191690555050565b7f65d7a28e3265b37a6474929f336521b332c1681b933f6cb9f3376673440d862a81565b60007fffffffff0000000000000000000000000000000000000000000000000000000082167f7965db0b0000000000000000000000000000000000000000000000000000000014806104605750610460826110e9565b3390565b6001600160a01b038316610b6b5760405162461bcd60e51b815260040161058f90612396565b6001600160a01b038216610b915760405162461bcd60e51b815260040161058f90612040565b6001600160a01b03808416600081815260ca602090815260408083209487168084529490915290819020849055517f8c5be1e5ebec7d5bd14f71427d1e84f3dd0314c0f7b2291e5b200ac8c7c3b92590610bec908590611ded565b60405180910390a3505050565b6001600160a01b038316610c1f5760405162461bcd60e51b815260040161058f90612302565b6001600160a01b038216610c455760405162461bcd60e51b815260040161058f90611ebb565b610c50838383611133565b6001600160a01b038316600090815260c9602052604090205481811015610c895760405162461bcd60e51b815260040161058f9061209d565b610c9382826125e3565b6001600160a01b03808616600090815260c960205260408082209390935590851681529081208054849290610cc99084906125ac565b92505081905550826001600160a01b0316846001600160a01b03167fddf252ad1be2c89b69c2b068fc378daa952ba7f163c4a11628f55a4df523b3ef84604051610d139190611ded565b60405180910390a350505050565b610d2a826105be565b610d3b81610d36610b41565b61113e565b6105f583836111a2565b6000610890836001600160a01b038416611229565b610d62610b41565b6001600160a01b0316816001600160a01b031614610d925760405162461bcd60e51b815260040161058f906124ad565b61071b8282611273565b6000610890836001600160a01b0384166112f8565b610db96107b3565b610dd55760405162461bcd60e51b815260040161058f90611f4f565b61012d805460ff191690557f5db9ee0a495bf2e6ff9c91a7834c1ba4fdd244a5e8aa4e537bd38aeae4b073aa610e09610b41565b604051610e169190611dce565b60405180910390a1565b61071b828261140f565b6001600160a01b038216610e505760405162461bcd60e51b815260040161058f906122a5565b610e5c82600083611133565b6001600160a01b038216600090815260c9602052604090205481811015610e955760405162461bcd60e51b815260040161058f90611f86565b610e9f82826125e3565b6001600160a01b038416600090815260c9602052604081209190915560cb8054849290610ecd9084906125e3565b90915550506040516000906001600160a01b038516907fddf252ad1be2c89b69c2b068fc378daa952ba7f163c4a11628f55a4df523b3ef90610bec908690611ded565b600054610100900460ff1680610f29575060005460ff16155b610f455760405162461bcd60e51b815260040161058f90612131565b600054610100900460ff16158015610f70576000805460ff1961ff0019909116610100171660011790555b610f78611452565b610f80611452565b610f88611452565b610f90611452565b610f9a83836114c6565b610fa2611452565b610faa611564565b610fb2611452565b61079d83836115e3565b610fc46107b3565b15610fe15760405162461bcd60e51b815260040161058f906120fa565b61012d805460ff191660011790557f62e78cea01bee320cd4e420270b5ea74000d11b0c9f74754ebdbfc544b05a258610e09610b41565b600061089083836116ad565b600061046082611706565b611038826105be565b61104481610d36610b41565b6105f58383611273565b600054610100900460ff1680611067575060005460ff16155b6110835760405162461bcd60e51b815260040161058f90612131565b600054610100900460ff161580156110ae576000805460ff1961ff0019909116610100171660011790555b600082116110ce5760405162461bcd60e51b815260040161058f90611f18565b6101c3829055801561071b576000805461ff00191690555050565b7fffffffff0000000000000000000000000000000000000000000000000000000081167f01ffc9a70000000000000000000000000000000000000000000000000000000014919050565b6105f583838361170a565b6111488282610897565b61071b57611160816001600160a01b03166014611715565b61116b836020611715565b60405160200161117c929190611d4d565b60408051601f198184030181529082905262461bcd60e51b825261058f91600401611df6565b6111ac8282610897565b61071b5760008281526065602090815260408083206001600160a01b03851684529091529020805460ff191660011790556111e5610b41565b6001600160a01b0316816001600160a01b0316837f2f8788117e7eff1d82e926ec794901d17c78024a50270940304540a733656f0d60405160405180910390a45050565b60006112358383611954565b61126b57508154600181810184556000848152602080822090930184905584548482528286019093526040902091909155610512565b506000610512565b61127d8282610897565b1561071b5760008281526065602090815260408083206001600160a01b03851684529091529020805460ff191690556112b4610b41565b6001600160a01b0316816001600160a01b0316837ff6391f5c32d9c69d2a47ea670b442974b53935d1edc7fd64eb21e047a839171b60405160405180910390a45050565b6000818152600183016020526040812054801561140557600061131c6001836125e3565b8554909150600090611330906001906125e3565b9050600086600001828154811061135757634e487b7160e01b600052603260045260246000fd5b906000526020600020015490508087600001848154811061138857634e487b7160e01b600052603260045260246000fd5b6000918252602080832090910192909255828152600189019091526040902084905586548790806113c957634e487b7160e01b600052603160045260246000fd5b60019003818190600052602060002001600090559055866001016000878152602001908152602001600020600090556001945050505050610512565b6000915050610512565b6114176105ff565b81611420610518565b61142a91906125ac565b11156114485760405162461bcd60e51b815260040161058f9061235f565b61071b828261196c565b600054610100900460ff168061146b575060005460ff16155b6114875760405162461bcd60e51b815260040161058f90612131565b600054610100900460ff161580156114b2576000805460ff1961ff0019909116610100171660011790555b8015610730576000805461ff001916905550565b600054610100900460ff16806114df575060005460ff16155b6114fb5760405162461bcd60e51b815260040161058f90612131565b600054610100900460ff16158015611526576000805460ff1961ff0019909116610100171660011790555b82516115399060cc906020860190611a70565b50815161154d9060cd906020850190611a70565b5080156105f5576000805461ff0019169055505050565b600054610100900460ff168061157d575060005460ff16155b6115995760405162461bcd60e51b815260040161058f90612131565b600054610100900460ff161580156115c4576000805460ff1961ff0019909116610100171660011790555b61012d805460ff191690558015610730576000805461ff001916905550565b600054610100900460ff16806115fc575060005460ff16155b6116185760405162461bcd60e51b815260040161058f90612131565b600054610100900460ff16158015611643576000805460ff1961ff0019909116610100171660011790555b6116556000611650610b41565b611a2c565b6116817f9f2df0fed2c77648de5860a4cc508cd0818c85b8b8a1ab4ceeef8d981c8956a6611650610b41565b61079d7f65d7a28e3265b37a6474929f336521b332c1681b933f6cb9f3376673440d862a611650610b41565b815460009082106116d05760405162461bcd60e51b815260040161058f90611e29565b8260000182815481106116f357634e487b7160e01b600052603260045260246000fd5b9060005260206000200154905092915050565b5490565b6105f5838383611a36565b606060006117248360026125c4565b61172f9060026125ac565b67ffffffffffffffff81111561175557634e487b7160e01b600052604160045260246000fd5b6040519080825280601f01601f19166020018201604052801561177f576020820181803683370190505b5090507f3000000000000000000000000000000000000000000000000000000000000000816000815181106117c457634e487b7160e01b600052603260045260246000fd5b60200101907effffffffffffffffffffffffffffffffffffffffffffffffffffffffffffff1916908160001a9053507f78000000000000000000000000000000000000000000000000000000000000008160018151811061183557634e487b7160e01b600052603260045260246000fd5b60200101907effffffffffffffffffffffffffffffffffffffffffffffffffffffffffffff1916908160001a90535060006118718460026125c4565b61187c9060016125ac565b90505b6001811115611935577f303132333435363738396162636465660000000000000000000000000000000085600f16601081106118cb57634e487b7160e01b600052603260045260246000fd5b1a60f81b8282815181106118ef57634e487b7160e01b600052603260045260246000fd5b60200101907effffffffffffffffffffffffffffffffffffffffffffffffffffffffffffff1916908160001a90535060049490941c9361192e8161262a565b905061187f565b5083156108905760405162461bcd60e51b815260040161058f90611e86565b60009081526001919091016020526040902054151590565b6001600160a01b0382166119925760405162461bcd60e51b815260040161058f9061250a565b61199e60008383611133565b8060cb60008282546119b091906125ac565b90915550506001600160a01b038216600090815260c96020526040812080548392906119dd9084906125ac565b90915550506040516001600160a01b038316906000907fddf252ad1be2c89b69c2b068fc378daa952ba7f163c4a11628f55a4df523b3ef90611a20908590611ded565b60405180910390a35050565b6105dd8282611a66565b611a418383836105f5565b611a496107b3565b156105f55760405162461bcd60e51b815260040161058f90612541565b61071b82826111a2565b828054611a7c90612641565b90600052602060002090601f016020900481019282611a9e5760008555611ae4565b82601f10611ab757805160ff1916838001178555611ae4565b82800160010185558215611ae4579182015b82811115611ae4578251825591602001919060010190611ac9565b50611af0929150611af4565b5090565b5b80821115611af05760008155600101611af5565b80356001600160a01b038116811461046357600080fd5b600082601f830112611b30578081fd5b813567ffffffffffffffff80821115611b4b57611b4b612692565b6040516020601f19601f8501168201018181108382111715611b6f57611b6f612692565b604052828152848301602001861015611b86578384fd5b82602086016020830137918201602001929092529392505050565b600060208284031215611bb2578081fd5b61089082611b09565b60008060408385031215611bcd578081fd5b611bd683611b09565b9150611be460208401611b09565b90509250929050565b600080600060608486031215611c01578081fd5b611c0a84611b09565b9250611c1860208501611b09565b9150604084013590509250925092565b60008060408385031215611c3a578182fd5b611c4383611b09565b946020939093013593505050565b600060208284031215611c62578081fd5b5035919050565b60008060408385031215611c7b578182fd5b82359150611be460208401611b09565b60008060408385031215611c9d578182fd5b50508035926020909101359150565b600060208284031215611cbd578081fd5b81357fffffffff0000000000000000000000000000000000000000000000000000000081168114610890578182fd5b60008060408385031215611cfe578182fd5b823567ffffffffffffffff80821115611d15578384fd5b611d2186838701611b20565b93506020850135915080821115611d36578283fd5b50611d4385828601611b20565b9150509250929050565b60007f416363657373436f6e74726f6c3a206163636f756e742000000000000000000082528351611d858160178501602088016125fa565b7f206973206d697373696e6720726f6c65200000000000000000000000000000006017918401918201528351611dc28160288401602088016125fa565b01602801949350505050565b6001600160a01b0391909116815260200190565b901515815260200190565b90815260200190565b6000602082528251806020840152611e158160408501602087016125fa565b601f01601f19169190910160400192915050565b60208082526022908201527f456e756d657261626c655365743a20696e646578206f7574206f6620626f756e60408201527f6473000000000000000000000000000000000000000000000000000000000000606082015260800190565b6020808252818101527f537472696e67733a20686578206c656e67746820696e73756666696369656e74604082015260600190565b60208082526023908201527f45524332303a207472616e7366657220746f20746865207a65726f206164647260408201527f6573730000000000000000000000000000000000000000000000000000000000606082015260800190565b60208082526015908201527f45524332304361707065643a2063617020697320300000000000000000000000604082015260600190565b60208082526014908201527f5061757361626c653a206e6f7420706175736564000000000000000000000000604082015260600190565b60208082526022908201527f45524332303a206275726e20616d6f756e7420657863656564732062616c616e60408201527f6365000000000000000000000000000000000000000000000000000000000000606082015260800190565b60208082526039908201527f45524332305072657365744d696e7465725061757365723a206d75737420686160408201527f76652070617573657220726f6c6520746f20756e706175736500000000000000606082015260800190565b60208082526022908201527f45524332303a20617070726f766520746f20746865207a65726f20616464726560408201527f7373000000000000000000000000000000000000000000000000000000000000606082015260800190565b60208082526026908201527f45524332303a207472616e7366657220616d6f756e742065786365656473206260408201527f616c616e63650000000000000000000000000000000000000000000000000000606082015260800190565b60208082526010908201527f5061757361626c653a2070617573656400000000000000000000000000000000604082015260600190565b6020808252602e908201527f496e697469616c697a61626c653a20636f6e747261637420697320616c72656160408201527f647920696e697469616c697a6564000000000000000000000000000000000000606082015260800190565b60208082526028908201527f45524332303a207472616e7366657220616d6f756e742065786365656473206160408201527f6c6c6f77616e6365000000000000000000000000000000000000000000000000606082015260800190565b60208082526036908201527f45524332305072657365744d696e7465725061757365723a206d75737420686160408201527f7665206d696e74657220726f6c6520746f206d696e7400000000000000000000606082015260800190565b60208082526024908201527f45524332303a206275726e20616d6f756e74206578636565647320616c6c6f7760408201527f616e636500000000000000000000000000000000000000000000000000000000606082015260800190565b60208082526021908201527f45524332303a206275726e2066726f6d20746865207a65726f2061646472657360408201527f7300000000000000000000000000000000000000000000000000000000000000606082015260800190565b60208082526025908201527f45524332303a207472616e736665722066726f6d20746865207a65726f20616460408201527f6472657373000000000000000000000000000000000000000000000000000000606082015260800190565b60208082526019908201527f45524332304361707065643a2063617020657863656564656400000000000000604082015260600190565b60208082526024908201527f45524332303a20617070726f76652066726f6d20746865207a65726f2061646460408201527f7265737300000000000000000000000000000000000000000000000000000000606082015260800190565b60208082526037908201527f45524332305072657365744d696e7465725061757365723a206d75737420686160408201527f76652070617573657220726f6c6520746f207061757365000000000000000000606082015260800190565b60208082526025908201527f45524332303a2064656372656173656420616c6c6f77616e63652062656c6f7760408201527f207a65726f000000000000000000000000000000000000000000000000000000606082015260800190565b6020808252602f908201527f416363657373436f6e74726f6c3a2063616e206f6e6c792072656e6f756e636560408201527f20726f6c657320666f722073656c660000000000000000000000000000000000606082015260800190565b6020808252601f908201527f45524332303a206d696e7420746f20746865207a65726f206164647265737300604082015260600190565b6020808252602a908201527f45524332305061757361626c653a20746f6b656e207472616e7366657220776860408201527f696c652070617573656400000000000000000000000000000000000000000000606082015260800190565b60ff91909116815260200190565b600082198211156125bf576125bf61267c565b500190565b60008160001904831182151516156125de576125de61267c565b500290565b6000828210156125f5576125f561267c565b500390565b60005b838110156126155781810151838201526020016125fd565b83811115612624576000848401525b50505050565b6000816126395761263961267c565b506000190190565b60028104600182168061265557607f821691505b6020821081141561267657634e487b7160e01b600052602260045260246000fd5b50919050565b634e487b7160e01b600052601160045260246000fd5b634e487b7160e01b600052604160045260246000fdfea2646970667358221220be65cf0472aa548c05c9edd29ccb91f36943be6cd040fe70fff8f83978401f3164736f6c63430008000033",
  "devdoc": {
    "details": "this contract is a Pausable ERC20 token with Burn and Mint functions. By implementing EnhancedMinterPauser this contract also includes external methods for setting a new implementation contract for the Proxy. NOTE: All calls to this contract should be made through the proxy, including admin actions. Any call to transfer against this contract should fail.",
    "kind": "dev",
    "methods": {
      "allowance(address,address)": {
        "details": "See {IERC20-allowance}."
      },
      "approve(address,uint256)": {
        "details": "See {IERC20-approve}. Requirements: - `spender` cannot be the zero address."
      },
      "balanceOf(address)": {
        "details": "See {IERC20-balanceOf}."
      },
      "burn(uint256)": {
        "details": "Destroys `amount` tokens from the caller. See {ERC20-_burn}."
      },
      "burnFrom(address,uint256)": {
        "details": "Destroys `amount` tokens from `account`, deducting from the caller's allowance. See {ERC20-_burn} and {ERC20-allowance}. Requirements: - the caller must have allowance for ``accounts``'s tokens of at least `amount`."
      },
      "cap()": {
        "details": "Returns the cap on the token's total supply."
      },
      "decimals()": {
        "details": "Returns the number of decimals used to get its user representation. For example, if `decimals` equals `2`, a balance of `505` tokens should be displayed to a user as `5,05` (`505 / 10 ** 2`). Tokens usually opt for a value of 18, imitating the relationship between Ether and Wei. This is the value {ERC20} uses, unless this function is overridden; NOTE: This information is only used for _display_ purposes: it in no way affects any of the arithmetic of the contract, including {IERC20-balanceOf} and {IERC20-transfer}."
      },
      "decreaseAllowance(address,uint256)": {
        "details": "Atomically decreases the allowance granted to `spender` by the caller. This is an alternative to {approve} that can be used as a mitigation for problems described in {IERC20-approve}. Emits an {Approval} event indicating the updated allowance. Requirements: - `spender` cannot be the zero address. - `spender` must have allowance for the caller of at least `subtractedValue`."
      },
      "getRoleAdmin(bytes32)": {
        "details": "Returns the admin role that controls `role`. See {grantRole} and {revokeRole}. To change a role's admin, use {_setRoleAdmin}."
      },
      "getRoleMember(bytes32,uint256)": {
        "details": "Returns one of the accounts that have `role`. `index` must be a value between 0 and {getRoleMemberCount}, non-inclusive. Role bearers are not sorted in any particular way, and their ordering may change at any point. WARNING: When using {getRoleMember} and {getRoleMemberCount}, make sure you perform all queries on the same block. See the following https://forum.openzeppelin.com/t/iterating-over-elements-on-enumerableset-in-openzeppelin-contracts/2296[forum post] for more information."
      },
      "getRoleMemberCount(bytes32)": {
        "details": "Returns the number of accounts that have `role`. Can be used together with {getRoleMember} to enumerate all bearers of a role."
      },
      "grantRole(bytes32,address)": {
        "details": "Overload {grantRole} to track enumerable memberships"
      },
      "hasRole(bytes32,address)": {
        "details": "Returns `true` if `account` has been granted `role`."
      },
      "increaseAllowance(address,uint256)": {
        "details": "Atomically increases the allowance granted to `spender` by the caller. This is an alternative to {approve} that can be used as a mitigation for problems described in {IERC20-approve}. Emits an {Approval} event indicating the updated allowance. Requirements: - `spender` cannot be the zero address."
      },
      "mint(address,uint256)": {
        "details": "Creates `amount` new tokens for `to`. See {ERC20-_mint}. Requirements: - the caller must have the `MINTER_ROLE`."
      },
      "name()": {
        "details": "Returns the name of the token."
      },
      "pause()": {
        "details": "Pauses all token transfers. See {ERC20Pausable} and {Pausable-_pause}. Requirements: - the caller must have the `PAUSER_ROLE`."
      },
      "paused()": {
        "details": "Returns true if the contract is paused, and false otherwise."
      },
      "renounceRole(bytes32,address)": {
        "details": "Overload {renounceRole} to track enumerable memberships"
      },
      "revokeRole(bytes32,address)": {
        "details": "Overload {revokeRole} to track enumerable memberships"
      },
      "supportsInterface(bytes4)": {
        "details": "See {IERC165-supportsInterface}."
      },
      "symbol()": {
        "details": "Returns the symbol of the token, usually a shorter version of the name."
      },
      "totalSupply()": {
        "details": "See {IERC20-totalSupply}."
      },
      "transfer(address,uint256)": {
        "details": "See {IERC20-transfer}. Requirements: - `recipient` cannot be the zero address. - the caller must have a balance of at least `amount`."
      },
      "transferFrom(address,address,uint256)": {
        "details": "See {IERC20-transferFrom}. Emits an {Approval} event indicating the updated allowance. This is not required by the EIP. See the note at the beginning of {ERC20}. Requirements: - `sender` and `recipient` cannot be the zero address. - `sender` must have a balance of at least `amount`. - the caller must have allowance for ``sender``'s tokens of at least `amount`."
      },
      "unpause()": {
        "details": "Unpauses all token transfers. See {ERC20Pausable} and {Pausable-_unpause}. Requirements: - the caller must have the `PAUSER_ROLE`."
      }
    },
    "title": "NNN Gold Token",
    "version": 1
  },
  "userdoc": {
    "kind": "user",
    "methods": {},
    "version": 1
  },
  "storageLayout": {
    "storage": [
      {
        "astId": 622,
        "contract": "src/NVMToken.sol:NVMToken",
        "label": "_initialized",
        "offset": 0,
        "slot": "0",
        "type": "t_bool"
      },
      {
        "astId": 625,
        "contract": "src/NVMToken.sol:NVMToken",
        "label": "_initializing",
        "offset": 1,
        "slot": "0",
        "type": "t_bool"
      },
      {
        "astId": 1893,
        "contract": "src/NVMToken.sol:NVMToken",
        "label": "__gap",
        "offset": 0,
        "slot": "1",
        "type": "t_array(t_uint256)50_storage"
      },
      {
        "astId": 2142,
        "contract": "src/NVMToken.sol:NVMToken",
        "label": "__gap",
        "offset": 0,
        "slot": "51",
        "type": "t_array(t_uint256)50_storage"
      },
      {
        "astId": 307,
        "contract": "src/NVMToken.sol:NVMToken",
        "label": "_roles",
        "offset": 0,
        "slot": "101",
        "type": "t_mapping(t_bytes32,t_struct(RoleData)302_storage)"
      },
      {
        "astId": 615,
        "contract": "src/NVMToken.sol:NVMToken",
        "label": "__gap",
        "offset": 0,
        "slot": "102",
        "type": "t_array(t_uint256)49_storage"
      },
      {
        "astId": 62,
        "contract": "src/NVMToken.sol:NVMToken",
        "label": "_roleMembers",
        "offset": 0,
        "slot": "151",
        "type": "t_mapping(t_bytes32,t_struct(AddressSet)2441_storage)"
      },
      {
        "astId": 219,
        "contract": "src/NVMToken.sol:NVMToken",
        "label": "__gap",
        "offset": 0,
        "slot": "152",
        "type": "t_array(t_uint256)49_storage"
      },
      {
        "astId": 794,
        "contract": "src/NVMToken.sol:NVMToken",
        "label": "_balances",
        "offset": 0,
        "slot": "201",
        "type": "t_mapping(t_address,t_uint256)"
      },
      {
        "astId": 800,
        "contract": "src/NVMToken.sol:NVMToken",
        "label": "_allowances",
        "offset": 0,
        "slot": "202",
        "type": "t_mapping(t_address,t_mapping(t_address,t_uint256))"
      },
      {
        "astId": 802,
        "contract": "src/NVMToken.sol:NVMToken",
        "label": "_totalSupply",
        "offset": 0,
        "slot": "203",
        "type": "t_uint256"
      },
      {
        "astId": 804,
        "contract": "src/NVMToken.sol:NVMToken",
        "label": "_name",
        "offset": 0,
        "slot": "204",
        "type": "t_string_storage"
      },
      {
        "astId": 806,
        "contract": "src/NVMToken.sol:NVMToken",
        "label": "_symbol",
        "offset": 0,
        "slot": "205",
        "type": "t_string_storage"
      },
      {
        "astId": 1308,
        "contract": "src/NVMToken.sol:NVMToken",
        "label": "__gap",
        "offset": 0,
        "slot": "206",
        "type": "t_array(t_uint256)45_storage"
      },
      {
        "astId": 1472,
        "contract": "src/NVMToken.sol:NVMToken",
        "label": "__gap",
        "offset": 0,
        "slot": "251",
        "type": "t_array(t_uint256)50_storage"
      },
      {
        "astId": 683,
        "contract": "src/NVMToken.sol:NVMToken",
        "label": "_paused",
        "offset": 0,
        "slot": "301",
        "type": "t_bool"
      },
      {
        "astId": 774,
        "contract": "src/NVMToken.sol:NVMToken",
        "label": "__gap",
        "offset": 0,
        "slot": "302",
        "type": "t_array(t_uint256)49_storage"
      },
      {
        "astId": 1626,
        "contract": "src/NVMToken.sol:NVMToken",
        "label": "__gap",
        "offset": 0,
        "slot": "351",
        "type": "t_array(t_uint256)50_storage"
      },
      {
        "astId": 1848,
        "contract": "src/NVMToken.sol:NVMToken",
        "label": "__gap",
        "offset": 0,
        "slot": "401",
        "type": "t_array(t_uint256)50_storage"
      },
      {
        "astId": 1484,
        "contract": "src/NVMToken.sol:NVMToken",
        "label": "_cap",
        "offset": 0,
        "slot": "451",
        "type": "t_uint256"
      },
      {
        "astId": 1561,
        "contract": "src/NVMToken.sol:NVMToken",
        "label": "__gap",
        "offset": 0,
        "slot": "452",
        "type": "t_array(t_uint256)50_storage"
      }
    ],
    "types": {
      "t_address": {
        "encoding": "inplace",
        "label": "address",
        "numberOfBytes": "20"
      },
      "t_array(t_bytes32)dyn_storage": {
        "base": "t_bytes32",
        "encoding": "dynamic_array",
        "label": "bytes32[]",
        "numberOfBytes": "32"
      },
      "t_array(t_uint256)45_storage": {
        "base": "t_uint256",
        "encoding": "inplace",
        "label": "uint256[45]",
        "numberOfBytes": "1440"
      },
      "t_array(t_uint256)49_storage": {
        "base": "t_uint256",
        "encoding": "inplace",
        "label": "uint256[49]",
        "numberOfBytes": "1568"
      },
      "t_array(t_uint256)50_storage": {
        "base": "t_uint256",
        "encoding": "inplace",
        "label": "uint256[50]",
        "numberOfBytes": "1600"
      },
      "t_bool": {
        "encoding": "inplace",
        "label": "bool",
        "numberOfBytes": "1"
      },
      "t_bytes32": {
        "encoding": "inplace",
        "label": "bytes32",
        "numberOfBytes": "32"
      },
      "t_mapping(t_address,t_bool)": {
        "encoding": "mapping",
        "key": "t_address",
        "label": "mapping(address => bool)",
        "numberOfBytes": "32",
        "value": "t_bool"
      },
      "t_mapping(t_address,t_mapping(t_address,t_uint256))": {
        "encoding": "mapping",
        "key": "t_address",
        "label": "mapping(address => mapping(address => uint256))",
        "numberOfBytes": "32",
        "value": "t_mapping(t_address,t_uint256)"
      },
      "t_mapping(t_address,t_uint256)": {
        "encoding": "mapping",
        "key": "t_address",
        "label": "mapping(address => uint256)",
        "numberOfBytes": "32",
        "value": "t_uint256"
      },
      "t_mapping(t_bytes32,t_struct(AddressSet)2441_storage)": {
        "encoding": "mapping",
        "key": "t_bytes32",
        "label": "mapping(bytes32 => struct EnumerableSetUpgradeable.AddressSet)",
        "numberOfBytes": "32",
        "value": "t_struct(AddressSet)2441_storage"
      },
      "t_mapping(t_bytes32,t_struct(RoleData)302_storage)": {
        "encoding": "mapping",
        "key": "t_bytes32",
        "label": "mapping(bytes32 => struct AccessControlUpgradeable.RoleData)",
        "numberOfBytes": "32",
        "value": "t_struct(RoleData)302_storage"
      },
      "t_mapping(t_bytes32,t_uint256)": {
        "encoding": "mapping",
        "key": "t_bytes32",
        "label": "mapping(bytes32 => uint256)",
        "numberOfBytes": "32",
        "value": "t_uint256"
      },
      "t_string_storage": {
        "encoding": "bytes",
        "label": "string",
        "numberOfBytes": "32"
      },
      "t_struct(AddressSet)2441_storage": {
        "encoding": "inplace",
        "label": "struct EnumerableSetUpgradeable.AddressSet",
        "members": [
          {
            "astId": 2440,
            "contract": "src/NVMToken.sol:NVMToken",
            "label": "_inner",
            "offset": 0,
            "slot": "0",
            "type": "t_struct(Set)2166_storage"
          }
        ],
        "numberOfBytes": "64"
      },
      "t_struct(RoleData)302_storage": {
        "encoding": "inplace",
        "label": "struct AccessControlUpgradeable.RoleData",
        "members": [
          {
            "astId": 299,
            "contract": "src/NVMToken.sol:NVMToken",
            "label": "members",
            "offset": 0,
            "slot": "0",
            "type": "t_mapping(t_address,t_bool)"
          },
          {
            "astId": 301,
            "contract": "src/NVMToken.sol:NVMToken",
            "label": "adminRole",
            "offset": 0,
            "slot": "1",
            "type": "t_bytes32"
          }
        ],
        "numberOfBytes": "64"
      },
      "t_struct(Set)2166_storage": {
        "encoding": "inplace",
        "label": "struct EnumerableSetUpgradeable.Set",
        "members": [
          {
            "astId": 2161,
            "contract": "src/NVMToken.sol:NVMToken",
            "label": "_values",
            "offset": 0,
            "slot": "0",
            "type": "t_array(t_bytes32)dyn_storage"
          },
          {
            "astId": 2165,
            "contract": "src/NVMToken.sol:NVMToken",
            "label": "_indexes",
            "offset": 0,
            "slot": "1",
            "type": "t_mapping(t_bytes32,t_uint256)"
          }
        ],
        "numberOfBytes": "64"
      },
      "t_uint256": {
        "encoding": "inplace",
        "label": "uint256",
        "numberOfBytes": "32"
      }
    }
  }
}