{
  "address": "0x63F0DbB2c90d5D293d67DffD93077f63d3bFb6c6",
  "abi": [
    {
      "anonymous": false,
      "inputs": [
        {
          "indexed": true,
          "internalType": "address",
          "name": "owner",
          "type": "address"
        },
        {
          "indexed": true,
          "internalType": "address",
          "name": "spender",
          "type": "address"
        },
        {
          "indexed": false,
          "internalType": "uint256",
          "name": "value",
          "type": "uint256"
        }
      ],
      "name": "Approval",
      "type": "event"
    },
    {
      "anonymous": false,
      "inputs": [
        {
          "indexed": true,
          "internalType": "address",
          "name": "previousOwner",
          "type": "address"
        },
        {
          "indexed": true,
          "internalType": "address",
          "name": "newOwner",
          "type": "address"
        }
      ],
      "name": "OwnershipTransferred",
      "type": "event"
    },
    {
      "anonymous": false,
      "inputs": [
        {
          "indexed": false,
          "internalType": "address",
          "name": "account",
          "type": "address"
        }
      ],
      "name": "Paused",
      "type": "event"
    },
    {
      "anonymous": false,
      "inputs": [
        {
          "indexed": true,
          "internalType": "bytes32",
          "name": "role",
          "type": "bytes32"
        },
        {
          "indexed": true,
          "internalType": "bytes32",
          "name": "previousAdminRole",
          "type": "bytes32"
        },
        {
          "indexed": true,
          "internalType": "bytes32",
          "name": "newAdminRole",
          "type": "bytes32"
        }
      ],
      "name": "RoleAdminChanged",
      "type": "event"
    },
    {
      "anonymous": false,
      "inputs": [
        {
          "indexed": true,
          "internalType": "bytes32",
          "name": "role",
          "type": "bytes32"
        },
        {
          "indexed": true,
          "internalType": "address",
          "name": "account",
          "type": "address"
        },
        {
          "indexed": true,
          "internalType": "address",
          "name": "sender",
          "type": "address"
        }
      ],
      "name": "RoleGranted",
      "type": "event"
    },
    {
      "anonymous": false,
      "inputs": [
        {
          "indexed": true,
          "internalType": "bytes32",
          "name": "role",
          "type": "bytes32"
        },
        {
          "indexed": true,
          "internalType": "address",
          "name": "account",
          "type": "address"
        },
        {
          "indexed": true,
          "internalType": "address",
          "name": "sender",
          "type": "address"
        }
      ],
      "name": "RoleRevoked",
      "type": "event"
    },
    {
      "anonymous": false,
      "inputs": [
        {
          "indexed": true,
          "internalType": "address",
          "name": "from",
          "type": "address"
        },
        {
          "indexed": true,
          "internalType": "address",
          "name": "to",
          "type": "address"
        },
        {
          "indexed": false,
          "internalType": "uint256",
          "name": "value",
          "type": "uint256"
        }
      ],
      "name": "Transfer",
      "type": "event"
    },
    {
      "anonymous": false,
      "inputs": [
        {
          "indexed": false,
          "internalType": "address",
          "name": "account",
          "type": "address"
        }
      ],
      "name": "Unpaused",
      "type": "event"
    },
    {
      "anonymous": false,
      "inputs": [
        {
          "indexed": false,
          "internalType": "address",
          "name": "newValue",
          "type": "address"
        }
      ],
      "name": "feeWalletAddressChanged",
      "type": "event"
    },
    {
      "anonymous": false,
      "inputs": [
        {
          "indexed": false,
          "internalType": "uint32",
          "name": "newValue",
          "type": "uint32"
        }
      ],
      "name": "mintingFeePercentChanged",
      "type": "event"
    },
    {
      "inputs": [],
      "name": "DEFAULT_ADMIN_ROLE",
      "outputs": [
        {
          "internalType": "bytes32",
          "name": "",
          "type": "bytes32"
        }
      ],
      "stateMutability": "view",
      "type": "function"
    },
    {
      "inputs": [],
      "name": "FEE_EXCLUDED_ROLE",
      "outputs": [
        {
          "internalType": "bytes32",
          "name": "",
          "type": "bytes32"
        }
      ],
      "stateMutability": "view",
      "type": "function"
    },
    {
      "inputs": [],
      "name": "MINTER_ROLE",
      "outputs": [
        {
          "internalType": "bytes32",
          "name": "",
          "type": "bytes32"
        }
      ],
      "stateMutability": "view",
      "type": "function"
    },
    {
      "inputs": [],
      "name": "PAUSER_ROLE",
      "outputs": [
        {
          "internalType": "bytes32",
          "name": "",
          "type": "bytes32"
        }
      ],
      "stateMutability": "view",
      "type": "function"
    },
    {
      "inputs": [
        {
          "internalType": "address",
          "name": "owner",
          "type": "address"
        },
        {
          "internalType": "address",
          "name": "spender",
          "type": "address"
        }
      ],
      "name": "allowance",
      "outputs": [
        {
          "internalType": "uint256",
          "name": "",
          "type": "uint256"
        }
      ],
      "stateMutability": "view",
      "type": "function"
    },
    {
      "inputs": [
        {
          "internalType": "address",
          "name": "spender",
          "type": "address"
        },
        {
          "internalType": "uint256",
          "name": "amount",
          "type": "uint256"
        }
      ],
      "name": "approve",
      "outputs": [
        {
          "internalType": "bool",
          "name": "",
          "type": "bool"
        }
      ],
      "stateMutability": "nonpayable",
      "type": "function"
    },
    {
      "inputs": [
        {
          "internalType": "address",
          "name": "account",
          "type": "address"
        }
      ],
      "name": "balanceOf",
      "outputs": [
        {
          "internalType": "uint256",
          "name": "",
          "type": "uint256"
        }
      ],
      "stateMutability": "view",
      "type": "function"
    },
    {
      "inputs": [
        {
          "internalType": "uint256",
          "name": "amount",
          "type": "uint256"
        }
      ],
      "name": "burn",
      "outputs": [],
      "stateMutability": "nonpayable",
      "type": "function"
    },
    {
      "inputs": [
        {
          "internalType": "address",
          "name": "account",
          "type": "address"
        },
        {
          "internalType": "uint256",
          "name": "amount",
          "type": "uint256"
        }
      ],
      "name": "burnFrom",
      "outputs": [],
      "stateMutability": "nonpayable",
      "type": "function"
    },
    {
      "inputs": [],
      "name": "cap",
      "outputs": [
        {
          "internalType": "uint256",
          "name": "",
          "type": "uint256"
        }
      ],
      "stateMutability": "view",
      "type": "function"
    },
    {
      "inputs": [],
      "name": "decimals",
      "outputs": [
        {
          "internalType": "uint8",
          "name": "",
          "type": "uint8"
        }
      ],
      "stateMutability": "view",
      "type": "function"
    },
    {
      "inputs": [
        {
          "internalType": "address",
          "name": "spender",
          "type": "address"
        },
        {
          "internalType": "uint256",
          "name": "subtractedValue",
          "type": "uint256"
        }
      ],
      "name": "decreaseAllowance",
      "outputs": [
        {
          "internalType": "bool",
          "name": "",
          "type": "bool"
        }
      ],
      "stateMutability": "nonpayable",
      "type": "function"
    },
    {
      "inputs": [],
      "name": "feeAddress",
      "outputs": [
        {
          "internalType": "address",
          "name": "",
          "type": "address"
        }
      ],
      "stateMutability": "view",
      "type": "function"
    },
    {
      "inputs": [],
      "name": "getFeeAddr",
      "outputs": [
        {
          "internalType": "address",
          "name": "",
          "type": "address"
        }
      ],
      "stateMutability": "view",
      "type": "function"
    },
    {
      "inputs": [
        {
          "internalType": "bytes32",
          "name": "role",
          "type": "bytes32"
        }
      ],
      "name": "getRoleAdmin",
      "outputs": [
        {
          "internalType": "bytes32",
          "name": "",
          "type": "bytes32"
        }
      ],
      "stateMutability": "view",
      "type": "function"
    },
    {
      "inputs": [
        {
          "internalType": "bytes32",
          "name": "role",
          "type": "bytes32"
        },
        {
          "internalType": "uint256",
          "name": "index",
          "type": "uint256"
        }
      ],
      "name": "getRoleMember",
      "outputs": [
        {
          "internalType": "address",
          "name": "",
          "type": "address"
        }
      ],
      "stateMutability": "view",
      "type": "function"
    },
    {
      "inputs": [
        {
          "internalType": "bytes32",
          "name": "role",
          "type": "bytes32"
        }
      ],
      "name": "getRoleMemberCount",
      "outputs": [
        {
          "internalType": "uint256",
          "name": "",
          "type": "uint256"
        }
      ],
      "stateMutability": "view",
      "type": "function"
    },
    {
      "inputs": [
        {
          "internalType": "bytes32",
          "name": "role",
          "type": "bytes32"
        },
        {
          "internalType": "address",
          "name": "account",
          "type": "address"
        }
      ],
      "name": "grantRole",
      "outputs": [],
      "stateMutability": "nonpayable",
      "type": "function"
    },
    {
      "inputs": [
        {
          "internalType": "bytes32",
          "name": "role",
          "type": "bytes32"
        },
        {
          "internalType": "address",
          "name": "account",
          "type": "address"
        }
      ],
      "name": "hasRole",
      "outputs": [
        {
          "internalType": "bool",
          "name": "",
          "type": "bool"
        }
      ],
      "stateMutability": "view",
      "type": "function"
    },
    {
      "inputs": [
        {
          "internalType": "address",
          "name": "spender",
          "type": "address"
        },
        {
          "internalType": "uint256",
          "name": "addedValue",
          "type": "uint256"
        }
      ],
      "name": "increaseAllowance",
      "outputs": [
        {
          "internalType": "bool",
          "name": "",
          "type": "bool"
        }
      ],
      "stateMutability": "nonpayable",
      "type": "function"
    },
    {
      "inputs": [
        {
          "internalType": "string",
          "name": "name",
          "type": "string"
        },
        {
          "internalType": "string",
          "name": "symbol",
          "type": "string"
        }
      ],
      "name": "initialize",
      "outputs": [],
      "stateMutability": "nonpayable",
      "type": "function"
    },
    {
      "inputs": [
        {
          "internalType": "address",
          "name": "to",
          "type": "address"
        },
        {
          "internalType": "uint256",
          "name": "amount",
          "type": "uint256"
        }
      ],
      "name": "mint",
      "outputs": [],
      "stateMutability": "nonpayable",
      "type": "function"
    },
    {
      "inputs": [],
      "name": "name",
      "outputs": [
        {
          "internalType": "string",
          "name": "",
          "type": "string"
        }
      ],
      "stateMutability": "view",
      "type": "function"
    },
    {
      "inputs": [],
      "name": "owner",
      "outputs": [
        {
          "internalType": "address",
          "name": "",
          "type": "address"
        }
      ],
      "stateMutability": "view",
      "type": "function"
    },
    {
      "inputs": [],
      "name": "pause",
      "outputs": [],
      "stateMutability": "nonpayable",
      "type": "function"
    },
    {
      "inputs": [],
      "name": "paused",
      "outputs": [
        {
          "internalType": "bool",
          "name": "",
          "type": "bool"
        }
      ],
      "stateMutability": "view",
      "type": "function"
    },
    {
      "inputs": [],
      "name": "renounceOwnership",
      "outputs": [],
      "stateMutability": "nonpayable",
      "type": "function"
    },
    {
      "inputs": [
        {
          "internalType": "bytes32",
          "name": "role",
          "type": "bytes32"
        },
        {
          "internalType": "address",
          "name": "account",
          "type": "address"
        }
      ],
      "name": "renounceRole",
      "outputs": [],
      "stateMutability": "nonpayable",
      "type": "function"
    },
    {
      "inputs": [
        {
          "internalType": "bytes32",
          "name": "role",
          "type": "bytes32"
        },
        {
          "internalType": "address",
          "name": "account",
          "type": "address"
        }
      ],
      "name": "revokeRole",
      "outputs": [],
      "stateMutability": "nonpayable",
      "type": "function"
    },
    {
      "inputs": [
        {
          "internalType": "address",
          "name": "_feeAddress",
          "type": "address"
        }
      ],
      "name": "setFeeWalletAddress",
      "outputs": [],
      "stateMutability": "nonpayable",
      "type": "function"
    },
    {
      "inputs": [
        {
          "internalType": "uint32",
          "name": "_tokenTransferFeeDivisor",
          "type": "uint32"
        }
      ],
      "name": "setTransferFeeDivisor",
      "outputs": [],
      "stateMutability": "nonpayable",
      "type": "function"
    },
    {
      "inputs": [
        {
          "internalType": "bytes4",
          "name": "interfaceId",
          "type": "bytes4"
        }
      ],
      "name": "supportsInterface",
      "outputs": [
        {
          "internalType": "bool",
          "name": "",
          "type": "bool"
        }
      ],
      "stateMutability": "view",
      "type": "function"
    },
    {
      "inputs": [],
      "name": "symbol",
      "outputs": [
        {
          "internalType": "string",
          "name": "",
          "type": "string"
        }
      ],
      "stateMutability": "view",
      "type": "function"
    },
    {
      "inputs": [],
      "name": "tokenTransferFeeDivisor",
      "outputs": [
        {
          "internalType": "uint32",
          "name": "",
          "type": "uint32"
        }
      ],
      "stateMutability": "view",
      "type": "function"
    },
    {
      "inputs": [],
      "name": "totalSupply",
      "outputs": [
        {
          "internalType": "uint256",
          "name": "",
          "type": "uint256"
        }
      ],
      "stateMutability": "view",
      "type": "function"
    },
    {
      "inputs": [
        {
          "internalType": "address",
          "name": "recipient",
          "type": "address"
        },
        {
          "internalType": "uint256",
          "name": "amount",
          "type": "uint256"
        }
      ],
      "name": "transfer",
      "outputs": [
        {
          "internalType": "bool",
          "name": "",
          "type": "bool"
        }
      ],
      "stateMutability": "nonpayable",
      "type": "function"
    },
    {
      "inputs": [
        {
          "internalType": "address",
          "name": "sender",
          "type": "address"
        },
        {
          "internalType": "address",
          "name": "recipient",
          "type": "address"
        },
        {
          "internalType": "uint256",
          "name": "amount",
          "type": "uint256"
        }
      ],
      "name": "transferFrom",
      "outputs": [
        {
          "internalType": "bool",
          "name": "",
          "type": "bool"
        }
      ],
      "stateMutability": "nonpayable",
      "type": "function"
    },
    {
      "inputs": [
        {
          "internalType": "address",
          "name": "newOwner",
          "type": "address"
        }
      ],
      "name": "transferOwnership",
      "outputs": [],
      "stateMutability": "nonpayable",
      "type": "function"
    },
    {
      "inputs": [],
      "name": "unpause",
      "outputs": [],
      "stateMutability": "nonpayable",
      "type": "function"
    }
  ],
  "transactionHash": "0x1294b0b38f91bb4ba5d3b2d762952f7797fb6bec0f3134828c25539920274d4b",
  "args": [],
  "solcInputHash": "12d2105ae212cb8d516fe55f2edef91b",
  "bytecode": "0x608060405234801561001057600080fd5b50612cb1806100206000396000f3fe608060405234801561001057600080fd5b50600436106102ad5760003560e01c80634cd88b761161017b578063a217fddf116100d8578063d53913931161008c578063dd62ed3e11610071578063dd62ed3e14610507578063e63ab1e91461051a578063f2fde38b14610522576102ad565b8063d5391393146104ec578063d547741f146104f4576102ad565b8063a9059cbb116100bd578063a9059cbb146104be578063b38779eb146104d1578063ca15c873146104d9576102ad565b8063a217fddf146104a3578063a457c2d7146104ab576102ad565b80638456cb591161012f5780639010d07c116101145780639010d07c1461047557806391d148541461048857806395d89b411461049b576102ad565b80638456cb59146104655780638da5cb5b1461046d576102ad565b806370a082311161016057806370a0823114610437578063715018a61461044a57806379cc679014610452576102ad565b80634cd88b761461041c5780635c975abb1461042f576102ad565b8063313ce567116102295780633f4ba83a116101dd57806341275358116101c257806341275358146103e157806342966c68146103f657806349178ad514610409576102ad565b80633f4ba83a146103c657806340c10f19146103ce576102ad565b8063355274ea1161020e578063355274ea1461039857806336568abe146103a057806339509351146103b3576102ad565b8063313ce5671461037057806331503ec414610385576102ad565b806318160ddd11610280578063248a9ca311610265578063248a9ca3146103405780632dd8175a146103535780632f2ff15d1461035b576102ad565b806318160ddd1461031857806323b872dd1461032d576102ad565b806301ffc9a7146102b257806306fdde03146102db578063095ea7b3146102f05780631804cb0414610303575b600080fd5b6102c56102c0366004612081565b610535565b6040516102d291906121db565b60405180910390f35b6102e3610593565b6040516102d291906121ef565b6102c56102fe366004611ffd565b610625565b61030b610643565b6040516102d29190612b40565b610320610650565b6040516102d291906121e6565b6102c561033b366004611fc2565b610656565b61032061034e366004612026565b6106f6565b61032061070b565b61036e61036936600461203e565b61072f565b005b610378610756565b6040516102d29190612b51565b61036e610393366004611f76565b61075b565b61032061082c565b61036e6103ae36600461203e565b610833565b6102c56103c1366004611ffd565b610855565b61036e6108a4565b61036e6103dc366004611ffd565b6108f6565b6103e961094c565b6040516102d291906121c7565b61036e610404366004612026565b610964565b61036e610417366004612122565b610978565b61036e61042a3660046120c1565b610a2e565b6102c5610aae565b610320610445366004611f76565b610ab8565b61036e610ad3565b61036e610460366004611ffd565b610b76565b61036e610bc6565b6103e9610c16565b6103e9610483366004612060565b610c26565b6102c561049636600461203e565b610c45565b6102e3610c70565b610320610c7f565b6102c56104b9366004611ffd565b610c84565b6102c56104cc366004611ffd565b610cff565b6103e9610d13565b6103206104e7366004612026565b610d2b565b610320610d42565b61036e61050236600461203e565b610d66565b610320610515366004611f90565b610d70565b610320610d9b565b61036e610530366004611f76565b610dbf565b60007fffffffff0000000000000000000000000000000000000000000000000000000082167f5a05180f00000000000000000000000000000000000000000000000000000000148061058b575061058b82610e9a565b90505b919050565b606060cc80546105a290612c14565b80601f01602080910402602001604051908101604052809291908181526020018280546105ce90612c14565b801561061b5780601f106105f05761010080835404028352916020019161061b565b820191906000526020600020905b8154815290600101906020018083116105fe57829003601f168201915b5050505050905090565b6000610639610632610ef0565b8484610ef4565b5060015b92915050565b6102285463ffffffff1681565b60cb5490565b6000610663848484610fa8565b6001600160a01b038416600090815260ca6020526040812081610684610ef0565b6001600160a01b03166001600160a01b03168152602001908152602001600020549050828110156106d05760405162461bcd60e51b81526004016106c790612641565b60405180910390fd5b6106eb856106dc610ef0565b6106e68685612bb6565b610ef4565b506001949350505050565b60009081526065602052604090206001015490565b7fbcaa5c4620c62b2fedc77ef4fe401724814aeef811d907416a737179a85b1ab281565b6107398282611020565b60008281526097602052604090206107519082611044565b505050565b601290565b6107686000610496610ef0565b6107845760405162461bcd60e51b81526004016106c7906128db565b6001600160a01b0381166107aa5760405162461bcd60e51b81526004016106c7906125ad565b61022880547fffffffffffffffff0000000000000000000000000000000000000000ffffffff166401000000006001600160a01b03848116820292909217928390556040517f6f5114b3e5960d863abb3c1a60db83d21c561b7818cdf638383e9b9ea40238f99361082193929004909116906121c7565b60405180910390a150565b6101c35490565b61083d8282611059565b6000828152609760205260409020610751908261109b565b6000610639610862610ef0565b848460ca6000610870610ef0565b6001600160a01b03908116825260208083019390935260409182016000908120918b16815292529020546106e69190612b5f565b6108d07f65d7a28e3265b37a6474929f336521b332c1681b933f6cb9f3376673440d862a610496610ef0565b6108ec5760405162461bcd60e51b81526004016106c790612402565b6108f46110b0565b565b6109227f9f2df0fed2c77648de5860a4cc508cd0818c85b8b8a1ab4ceeef8d981c8956a6610496610ef0565b61093e5760405162461bcd60e51b81526004016106c7906126d3565b610948828261111f565b5050565b6102285464010000000090046001600160a01b031681565b61097561096f610ef0565b82611129565b50565b6109856000610496610ef0565b6109a15760405162461bcd60e51b81526004016106c790612995565b60028163ffffffff16116109c75760405162461bcd60e51b81526004016106c790612348565b61022880547fffffffffffffffffffffffffffffffffffffffffffffffffffffffff000000001663ffffffff83811691909117918290556040517fb4fb343f6573d5bcc1c7ab700665911f5ed2699ecfc6a7d1b1af8405409b22ec92610821921690612b40565b600054610100900460ff1680610a47575060005460ff16155b610a635760405162461bcd60e51b81526004016106c7906125e4565b600054610100900460ff16158015610a8e576000805460ff1961ff0019909116610100171660011790555b610a98838361120f565b8015610751576000805461ff0019169055505050565b61012d5460ff1690565b6001600160a01b0316600090815260c9602052604090205490565b610adb610ef0565b6001600160a01b0316610aec610c16565b6001600160a01b031614610b125760405162461bcd60e51b81526004016106c79061269e565b6101f6546040516000916001600160a01b0316907f8be0079c531659141344cd1fd0a4f28419497f9722a3daafe3b4186f6b6457e0908390a36101f680547fffffffffffffffffffffffff0000000000000000000000000000000000000000169055565b6000610b8483610515610ef0565b905081811015610ba65760405162461bcd60e51b81526004016106c790612730565b610bbc83610bb2610ef0565b6106e68585612bb6565b6107518383611129565b610bf27f65d7a28e3265b37a6474929f336521b332c1681b933f6cb9f3376673440d862a610496610ef0565b610c0e5760405162461bcd60e51b81526004016106c790612938565b6108f46112bb565b6101f6546001600160a01b031690565b6000828152609760205260408120610c3e9083611317565b9392505050565b60009182526065602090815260408084206001600160a01b0393909316845291905290205460ff1690565b606060cd80546105a290612c14565b600081565b60008060ca6000610c93610ef0565b6001600160a01b0390811682526020808301939093526040918201600090812091881681529252902054905082811015610cdf5760405162461bcd60e51b81526004016106c7906129f2565b610cf5610cea610ef0565b856106e68685612bb6565b5060019392505050565b6000610639610d0c610ef0565b8484610fa8565b6102285464010000000090046001600160a01b031690565b600081815260976020526040812061058b90611323565b7f9f2df0fed2c77648de5860a4cc508cd0818c85b8b8a1ab4ceeef8d981c8956a681565b61083d828261132e565b6001600160a01b03918216600090815260ca6020908152604080832093909416825291909152205490565b7f65d7a28e3265b37a6474929f336521b332c1681b933f6cb9f3376673440d862a81565b610dc7610ef0565b6001600160a01b0316610dd8610c16565b6001600160a01b031614610dfe5760405162461bcd60e51b81526004016106c79061269e565b6001600160a01b038116610e245760405162461bcd60e51b81526004016106c79061245f565b6101f6546040516001600160a01b038084169216907f8be0079c531659141344cd1fd0a4f28419497f9722a3daafe3b4186f6b6457e090600090a36101f680547fffffffffffffffffffffffff0000000000000000000000000000000000000000166001600160a01b0392909216919091179055565b60007fffffffff0000000000000000000000000000000000000000000000000000000082167f7965db0b00000000000000000000000000000000000000000000000000000000148061058b575061058b8261134d565b3390565b6001600160a01b038316610f1a5760405162461bcd60e51b81526004016106c79061287e565b6001600160a01b038216610f405760405162461bcd60e51b81526004016106c7906124bc565b6001600160a01b03808416600081815260ca602090815260408083209487168084529490915290819020849055517f8c5be1e5ebec7d5bd14f71427d1e84f3dd0314c0f7b2291e5b200ac8c7c3b92590610f9b9085906121e6565b60405180910390a3505050565b610fd47fbcaa5c4620c62b2fedc77ef4fe401724814aeef811d907416a737179a85b1ab2610496610ef0565b15610fe957610fe4838383611397565b610751565b610ffc8383610ff7846114bf565b611397565b6102285461075190849064010000000090046001600160a01b0316610ff7846114d4565b611029826106f6565b61103a81611035610ef0565b6114f0565b6107518383611554565b6000610c3e836001600160a01b0384166115db565b611061610ef0565b6001600160a01b0316816001600160a01b0316146110915760405162461bcd60e51b81526004016106c790612a4f565b6109488282611625565b6000610c3e836001600160a01b0384166116aa565b6110b8610aae565b6110d45760405162461bcd60e51b81526004016106c790612311565b61012d805460ff191690557f5db9ee0a495bf2e6ff9c91a7834c1ba4fdd244a5e8aa4e537bd38aeae4b073aa611108610ef0565b60405161111591906121c7565b60405180910390a1565b61094882826117c1565b6001600160a01b03821661114f5760405162461bcd60e51b81526004016106c79061278d565b61115b82600083611804565b6001600160a01b038216600090815260c96020526040902054818110156111945760405162461bcd60e51b81526004016106c7906123a5565b61119e8282612bb6565b6001600160a01b038416600090815260c9602052604081209190915560cb80548492906111cc908490612bb6565b90915550506040516000906001600160a01b038516907fddf252ad1be2c89b69c2b068fc378daa952ba7f163c4a11628f55a4df523b3ef90610f9b9086906121e6565b600054610100900460ff1680611228575060005460ff16155b6112445760405162461bcd60e51b81526004016106c7906125e4565b600054610100900460ff1615801561126f576000805460ff1961ff0019909116610100171660011790555b61127761180f565b61127f61180f565b61128761180f565b61128f61180f565b6112998383611883565b6112a161180f565b6112a9611921565b6112b161180f565b610a9883836119a0565b6112c3610aae565b156112e05760405162461bcd60e51b81526004016106c790612576565b61012d805460ff191660011790557f62e78cea01bee320cd4e420270b5ea74000d11b0c9f74754ebdbfc544b05a258611108610ef0565b6000610c3e8383611a6a565b600061058b82611ac3565b611337826106f6565b61134381611035610ef0565b6107518383611625565b7fffffffff0000000000000000000000000000000000000000000000000000000081167f01ffc9a70000000000000000000000000000000000000000000000000000000014919050565b6001600160a01b0383166113bd5760405162461bcd60e51b81526004016106c7906127ea565b6001600160a01b0382166113e35760405162461bcd60e51b81526004016106c7906122b4565b6113ee838383611804565b6001600160a01b038316600090815260c96020526040902054818110156114275760405162461bcd60e51b81526004016106c790612519565b6114318282612bb6565b6001600160a01b03808616600090815260c960205260408082209390935590851681529081208054849290611467908490612b5f565b92505081905550826001600160a01b0316846001600160a01b03167fddf252ad1be2c89b69c2b068fc378daa952ba7f163c4a11628f55a4df523b3ef846040516114b191906121e6565b60405180910390a350505050565b600061058b6114cd836114d4565b8390611ac7565b6102285460009061058b90839063ffffffff90811690611ad316565b6114fa8282610c45565b61094857611512816001600160a01b03166014611adf565b61151d836020611adf565b60405160200161152e929190612146565b60408051601f198184030181529082905262461bcd60e51b82526106c7916004016121ef565b61155e8282610c45565b6109485760008281526065602090815260408083206001600160a01b03851684529091529020805460ff19166001179055611597610ef0565b6001600160a01b0316816001600160a01b0316837f2f8788117e7eff1d82e926ec794901d17c78024a50270940304540a733656f0d60405160405180910390a45050565b60006115e78383611d1e565b61161d5750815460018181018455600084815260208082209093018490558454848252828601909352604090209190915561063d565b50600061063d565b61162f8282610c45565b156109485760008281526065602090815260408083206001600160a01b03851684529091529020805460ff19169055611666610ef0565b6001600160a01b0316816001600160a01b0316837ff6391f5c32d9c69d2a47ea670b442974b53935d1edc7fd64eb21e047a839171b60405160405180910390a45050565b600081815260018301602052604081205480156117b75760006116ce600183612bb6565b85549091506000906116e290600190612bb6565b9050600086600001828154811061170957634e487b7160e01b600052603260045260246000fd5b906000526020600020015490508087600001848154811061173a57634e487b7160e01b600052603260045260246000fd5b60009182526020808320909101929092558281526001890190915260409020849055865487908061177b57634e487b7160e01b600052603160045260246000fd5b6001900381819060005260206000200160009055905586600101600087815260200190815260200160002060009055600194505050505061063d565b600091505061063d565b6117c961082c565b816117d2610650565b6117dc9190612b5f565b11156117fa5760405162461bcd60e51b81526004016106c790612847565b6109488282611d36565b610751838383611df6565b600054610100900460ff1680611828575060005460ff16155b6118445760405162461bcd60e51b81526004016106c7906125e4565b600054610100900460ff1615801561186f576000805460ff1961ff0019909116610100171660011790555b8015610975576000805461ff001916905550565b600054610100900460ff168061189c575060005460ff16155b6118b85760405162461bcd60e51b81526004016106c7906125e4565b600054610100900460ff161580156118e3576000805460ff1961ff0019909116610100171660011790555b82516118f69060cc906020860190611e45565b50815161190a9060cd906020850190611e45565b508015610751576000805461ff0019169055505050565b600054610100900460ff168061193a575060005460ff16155b6119565760405162461bcd60e51b81526004016106c7906125e4565b600054610100900460ff16158015611981576000805460ff1961ff0019909116610100171660011790555b61012d805460ff191690558015610975576000805461ff001916905550565b600054610100900460ff16806119b9575060005460ff16155b6119d55760405162461bcd60e51b81526004016106c7906125e4565b600054610100900460ff16158015611a00576000805460ff1961ff0019909116610100171660011790555b611a126000611a0d610ef0565b611e01565b611a3e7f9f2df0fed2c77648de5860a4cc508cd0818c85b8b8a1ab4ceeef8d981c8956a6611a0d610ef0565b610a987f65d7a28e3265b37a6474929f336521b332c1681b933f6cb9f3376673440d862a611a0d610ef0565b81546000908210611a8d5760405162461bcd60e51b81526004016106c790612222565b826000018281548110611ab057634e487b7160e01b600052603260045260246000fd5b9060005260206000200154905092915050565b5490565b6000610c3e8284612bb6565b6000610c3e8284612b77565b60606000611aee836002612b97565b611af9906002612b5f565b67ffffffffffffffff811115611b1f57634e487b7160e01b600052604160045260246000fd5b6040519080825280601f01601f191660200182016040528015611b49576020820181803683370190505b5090507f300000000000000000000000000000000000000000000000000000000000000081600081518110611b8e57634e487b7160e01b600052603260045260246000fd5b60200101907effffffffffffffffffffffffffffffffffffffffffffffffffffffffffffff1916908160001a9053507f780000000000000000000000000000000000000000000000000000000000000081600181518110611bff57634e487b7160e01b600052603260045260246000fd5b60200101907effffffffffffffffffffffffffffffffffffffffffffffffffffffffffffff1916908160001a9053506000611c3b846002612b97565b611c46906001612b5f565b90505b6001811115611cff577f303132333435363738396162636465660000000000000000000000000000000085600f1660108110611c9557634e487b7160e01b600052603260045260246000fd5b1a60f81b828281518110611cb957634e487b7160e01b600052603260045260246000fd5b60200101907effffffffffffffffffffffffffffffffffffffffffffffffffffffffffffff1916908160001a90535060049490941c93611cf881612bfd565b9050611c49565b508315610c3e5760405162461bcd60e51b81526004016106c79061227f565b60009081526001919091016020526040902054151590565b6001600160a01b038216611d5c5760405162461bcd60e51b81526004016106c790612aac565b611d6860008383611804565b8060cb6000828254611d7a9190612b5f565b90915550506001600160a01b038216600090815260c9602052604081208054839290611da7908490612b5f565b90915550506040516001600160a01b038316906000907fddf252ad1be2c89b69c2b068fc378daa952ba7f163c4a11628f55a4df523b3ef90611dea9085906121e6565b60405180910390a35050565b610751838383611e0b565b6107398282611e3b565b611e16838383610751565b611e1e610aae565b156107515760405162461bcd60e51b81526004016106c790612ae3565b6109488282611554565b828054611e5190612c14565b90600052602060002090601f016020900481019282611e735760008555611eb9565b82601f10611e8c57805160ff1916838001178555611eb9565b82800160010185558215611eb9579182015b82811115611eb9578251825591602001919060010190611e9e565b50611ec5929150611ec9565b5090565b5b80821115611ec55760008155600101611eca565b80356001600160a01b038116811461058e57600080fd5b600082601f830112611f05578081fd5b813567ffffffffffffffff80821115611f2057611f20612c65565b6040516020601f19601f8501168201018181108382111715611f4457611f44612c65565b604052828152848301602001861015611f5b578384fd5b82602086016020830137918201602001929092529392505050565b600060208284031215611f87578081fd5b610c3e82611ede565b60008060408385031215611fa2578081fd5b611fab83611ede565b9150611fb960208401611ede565b90509250929050565b600080600060608486031215611fd6578081fd5b611fdf84611ede565b9250611fed60208501611ede565b9150604084013590509250925092565b6000806040838503121561200f578182fd5b61201883611ede565b946020939093013593505050565b600060208284031215612037578081fd5b5035919050565b60008060408385031215612050578182fd5b82359150611fb960208401611ede565b60008060408385031215612072578182fd5b50508035926020909101359150565b600060208284031215612092578081fd5b81357fffffffff0000000000000000000000000000000000000000000000000000000081168114610c3e578182fd5b600080604083850312156120d3578182fd5b823567ffffffffffffffff808211156120ea578384fd5b6120f686838701611ef5565b9350602085013591508082111561210b578283fd5b5061211885828601611ef5565b9150509250929050565b600060208284031215612133578081fd5b813563ffffffff81168114610c3e578182fd5b60007f416363657373436f6e74726f6c3a206163636f756e74200000000000000000008252835161217e816017850160208801612bcd565b7f206973206d697373696e6720726f6c652000000000000000000000000000000060179184019182015283516121bb816028840160208801612bcd565b01602801949350505050565b6001600160a01b0391909116815260200190565b901515815260200190565b90815260200190565b600060208252825180602084015261220e816040850160208701612bcd565b601f01601f19169190910160400192915050565b60208082526022908201527f456e756d657261626c655365743a20696e646578206f7574206f6620626f756e60408201527f6473000000000000000000000000000000000000000000000000000000000000606082015260800190565b6020808252818101527f537472696e67733a20686578206c656e67746820696e73756666696369656e74604082015260600190565b60208082526023908201527f45524332303a207472616e7366657220746f20746865207a65726f206164647260408201527f6573730000000000000000000000000000000000000000000000000000000000606082015260800190565b60208082526014908201527f5061757361626c653a206e6f7420706175736564000000000000000000000000604082015260600190565b60208082526031908201527f546f6b656e207472616e73666572206665652064697669736f72206d7573742060408201527f62652067726561746572207468616e2030000000000000000000000000000000606082015260800190565b60208082526022908201527f45524332303a206275726e20616d6f756e7420657863656564732062616c616e60408201527f6365000000000000000000000000000000000000000000000000000000000000606082015260800190565b60208082526039908201527f45524332305072657365744d696e7465725061757365723a206d75737420686160408201527f76652070617573657220726f6c6520746f20756e706175736500000000000000606082015260800190565b60208082526026908201527f4f776e61626c653a206e6577206f776e657220697320746865207a65726f206160408201527f6464726573730000000000000000000000000000000000000000000000000000606082015260800190565b60208082526022908201527f45524332303a20617070726f766520746f20746865207a65726f20616464726560408201527f7373000000000000000000000000000000000000000000000000000000000000606082015260800190565b60208082526026908201527f45524332303a207472616e7366657220616d6f756e742065786365656473206260408201527f616c616e63650000000000000000000000000000000000000000000000000000606082015260800190565b60208082526010908201527f5061757361626c653a2070617573656400000000000000000000000000000000604082015260600190565b6020808252601b908201527f7a65726f2061646472657373206973206e6f7420616c6c6f7765640000000000604082015260600190565b6020808252602e908201527f496e697469616c697a61626c653a20636f6e747261637420697320616c72656160408201527f647920696e697469616c697a6564000000000000000000000000000000000000606082015260800190565b60208082526028908201527f45524332303a207472616e7366657220616d6f756e742065786365656473206160408201527f6c6c6f77616e6365000000000000000000000000000000000000000000000000606082015260800190565b6020808252818101527f4f776e61626c653a2063616c6c6572206973206e6f7420746865206f776e6572604082015260600190565b60208082526036908201527f45524332305072657365744d696e7465725061757365723a206d75737420686160408201527f7665206d696e74657220726f6c6520746f206d696e7400000000000000000000606082015260800190565b60208082526024908201527f45524332303a206275726e20616d6f756e74206578636565647320616c6c6f7760408201527f616e636500000000000000000000000000000000000000000000000000000000606082015260800190565b60208082526021908201527f45524332303a206275726e2066726f6d20746865207a65726f2061646472657360408201527f7300000000000000000000000000000000000000000000000000000000000000606082015260800190565b60208082526025908201527f45524332303a207472616e736665722066726f6d20746865207a65726f20616460408201527f6472657373000000000000000000000000000000000000000000000000000000606082015260800190565b60208082526019908201527f45524332304361707065643a2063617020657863656564656400000000000000604082015260600190565b60208082526024908201527f45524332303a20617070726f76652066726f6d20746865207a65726f2061646460408201527f7265737300000000000000000000000000000000000000000000000000000000606082015260800190565b60208082526036908201527f43616c6c6572206d75737420686176652061646d696e20726f6c6520746f207360408201527f6574206d696e74696e6720666565206164647265737300000000000000000000606082015260800190565b60208082526037908201527f45524332305072657365744d696e7465725061757365723a206d75737420686160408201527f76652070617573657220726f6c6520746f207061757365000000000000000000606082015260800190565b60208082526036908201527f43616c6c6572206d75737420686176652061646d696e20726f6c6520746f207360408201527f6574206d696e74696e67206665652070657263656e7400000000000000000000606082015260800190565b60208082526025908201527f45524332303a2064656372656173656420616c6c6f77616e63652062656c6f7760408201527f207a65726f000000000000000000000000000000000000000000000000000000606082015260800190565b6020808252602f908201527f416363657373436f6e74726f6c3a2063616e206f6e6c792072656e6f756e636560408201527f20726f6c657320666f722073656c660000000000000000000000000000000000606082015260800190565b6020808252601f908201527f45524332303a206d696e7420746f20746865207a65726f206164647265737300604082015260600190565b6020808252602a908201527f45524332305061757361626c653a20746f6b656e207472616e7366657220776860408201527f696c652070617573656400000000000000000000000000000000000000000000606082015260800190565b63ffffffff91909116815260200190565b60ff91909116815260200190565b60008219821115612b7257612b72612c4f565b500190565b600082612b9257634e487b7160e01b81526012600452602481fd5b500490565b6000816000190483118215151615612bb157612bb1612c4f565b500290565b600082821015612bc857612bc8612c4f565b500390565b60005b83811015612be8578181015183820152602001612bd0565b83811115612bf7576000848401525b50505050565b600081612c0c57612c0c612c4f565b506000190190565b600281046001821680612c2857607f821691505b60208210811415612c4957634e487b7160e01b600052602260045260246000fd5b50919050565b634e487b7160e01b600052601160045260246000fd5b634e487b7160e01b600052604160045260246000fdfea2646970667358221220466cebedbf14f245eaa2f63adb0e0a5f80a758cfbad5ddf459bea64191316d5264736f6c63430008000033",
  "devdoc": {
    "details": "this contract is a Pausable ERC20 token with Burn and Mint functions. By implementing EnhancedMinterPauser this contract also includes external methods for setting a new implementation contract for the Proxy. NOTE: All calls to this contract should be made through the proxy, including admin actions. Any call to transfer against this contract should fail.",
    "kind": "dev",
    "methods": {
      "allowance(address,address)": {
        "details": "See {IERC20-allowance}."
      },
      "approve(address,uint256)": {
        "details": "See {IERC20-approve}. Requirements: - `spender` cannot be the zero address."
      },
      "balanceOf(address)": {
        "details": "See {IERC20-balanceOf}."
      },
      "burn(uint256)": {
        "details": "Destroys `amount` tokens from the caller. See {ERC20-_burn}."
      },
      "burnFrom(address,uint256)": {
        "details": "Destroys `amount` tokens from `account`, deducting from the caller's allowance. See {ERC20-_burn} and {ERC20-allowance}. Requirements: - the caller must have allowance for ``accounts``'s tokens of at least `amount`."
      },
      "cap()": {
        "details": "Returns the cap on the token's total supply."
      },
      "decimals()": {
        "details": "Returns the number of decimals used to get its user representation. For example, if `decimals` equals `2`, a balance of `505` tokens should be displayed to a user as `5,05` (`505 / 10 ** 2`). Tokens usually opt for a value of 18, imitating the relationship between Ether and Wei. This is the value {ERC20} uses, unless this function is overridden; NOTE: This information is only used for _display_ purposes: it in no way affects any of the arithmetic of the contract, including {IERC20-balanceOf} and {IERC20-transfer}."
      },
      "decreaseAllowance(address,uint256)": {
        "details": "Atomically decreases the allowance granted to `spender` by the caller. This is an alternative to {approve} that can be used as a mitigation for problems described in {IERC20-approve}. Emits an {Approval} event indicating the updated allowance. Requirements: - `spender` cannot be the zero address. - `spender` must have allowance for the caller of at least `subtractedValue`."
      },
      "getRoleAdmin(bytes32)": {
        "details": "Returns the admin role that controls `role`. See {grantRole} and {revokeRole}. To change a role's admin, use {_setRoleAdmin}."
      },
      "getRoleMember(bytes32,uint256)": {
        "details": "Returns one of the accounts that have `role`. `index` must be a value between 0 and {getRoleMemberCount}, non-inclusive. Role bearers are not sorted in any particular way, and their ordering may change at any point. WARNING: When using {getRoleMember} and {getRoleMemberCount}, make sure you perform all queries on the same block. See the following https://forum.openzeppelin.com/t/iterating-over-elements-on-enumerableset-in-openzeppelin-contracts/2296[forum post] for more information."
      },
      "getRoleMemberCount(bytes32)": {
        "details": "Returns the number of accounts that have `role`. Can be used together with {getRoleMember} to enumerate all bearers of a role."
      },
      "grantRole(bytes32,address)": {
        "details": "Overload {grantRole} to track enumerable memberships"
      },
      "hasRole(bytes32,address)": {
        "details": "Returns `true` if `account` has been granted `role`."
      },
      "increaseAllowance(address,uint256)": {
        "details": "Atomically increases the allowance granted to `spender` by the caller. This is an alternative to {approve} that can be used as a mitigation for problems described in {IERC20-approve}. Emits an {Approval} event indicating the updated allowance. Requirements: - `spender` cannot be the zero address."
      },
      "mint(address,uint256)": {
        "details": "Creates `amount` new tokens for `to`. See {ERC20-_mint}. Requirements: - the caller must have the `MINTER_ROLE`."
      },
      "name()": {
        "details": "Returns the name of the token."
      },
      "owner()": {
        "details": "Returns the address of the current owner."
      },
      "pause()": {
        "details": "Pauses all token transfers. See {ERC20Pausable} and {Pausable-_pause}. Requirements: - the caller must have the `PAUSER_ROLE`."
      },
      "paused()": {
        "details": "Returns true if the contract is paused, and false otherwise."
      },
      "renounceOwnership()": {
        "details": "Leaves the contract without owner. It will not be possible to call `onlyOwner` functions anymore. Can only be called by the current owner. NOTE: Renouncing ownership will leave the contract without an owner, thereby removing any functionality that is only available to the owner."
      },
      "renounceRole(bytes32,address)": {
        "details": "Overload {renounceRole} to track enumerable memberships"
      },
      "revokeRole(bytes32,address)": {
        "details": "Overload {revokeRole} to track enumerable memberships"
      },
      "setFeeWalletAddress(address)": {
        "details": "set the wallet address where fees will be collected"
      },
      "setTransferFeeDivisor(uint32)": {
        "details": "sets the transfer fee example: divisor 400 would equal to 0,05 percent; 1/400 = 0,0025/100"
      },
      "supportsInterface(bytes4)": {
        "details": "See {IERC165-supportsInterface}."
      },
      "symbol()": {
        "details": "Returns the symbol of the token, usually a shorter version of the name."
      },
      "totalSupply()": {
        "details": "See {IERC20-totalSupply}."
      },
      "transfer(address,uint256)": {
        "details": "See {IERC20-transfer}. Requirements: - `recipient` cannot be the zero address. - the caller must have a balance of at least `amount`."
      },
      "transferFrom(address,address,uint256)": {
        "details": "See {IERC20-transferFrom}. Emits an {Approval} event indicating the updated allowance. This is not required by the EIP. See the note at the beginning of {ERC20}. Requirements: - `sender` and `recipient` cannot be the zero address. - `sender` must have a balance of at least `amount`. - the caller must have allowance for ``sender``'s tokens of at least `amount`."
      },
      "transferOwnership(address)": {
        "details": "Transfers ownership of the contract to a new account (`newOwner`). Can only be called by the current owner."
      },
      "unpause()": {
        "details": "Unpauses all token transfers. See {ERC20Pausable} and {Pausable-_unpause}. Requirements: - the caller must have the `PAUSER_ROLE`."
      }
    },
    "title": "NNN Gold Token",
    "version": 1
  },
  "userdoc": {
    "kind": "user",
    "methods": {},
    "version": 1
  },
  "storageLayout": {
    "storage": [
      {
        "astId": 753,
        "contract": "src/NVMTokenV2.sol:NVMTokenV2",
        "label": "_initialized",
        "offset": 0,
        "slot": "0",
        "type": "t_bool"
      },
      {
        "astId": 756,
        "contract": "src/NVMTokenV2.sol:NVMTokenV2",
        "label": "_initializing",
        "offset": 1,
        "slot": "0",
        "type": "t_bool"
      },
      {
        "astId": 2024,
        "contract": "src/NVMTokenV2.sol:NVMTokenV2",
        "label": "__gap",
        "offset": 0,
        "slot": "1",
        "type": "t_array(t_uint256)50_storage"
      },
      {
        "astId": 2273,
        "contract": "src/NVMTokenV2.sol:NVMTokenV2",
        "label": "__gap",
        "offset": 0,
        "slot": "51",
        "type": "t_array(t_uint256)50_storage"
      },
      {
        "astId": 307,
        "contract": "src/NVMTokenV2.sol:NVMTokenV2",
        "label": "_roles",
        "offset": 0,
        "slot": "101",
        "type": "t_mapping(t_bytes32,t_struct(RoleData)302_storage)"
      },
      {
        "astId": 615,
        "contract": "src/NVMTokenV2.sol:NVMTokenV2",
        "label": "__gap",
        "offset": 0,
        "slot": "102",
        "type": "t_array(t_uint256)49_storage"
      },
      {
        "astId": 62,
        "contract": "src/NVMTokenV2.sol:NVMTokenV2",
        "label": "_roleMembers",
        "offset": 0,
        "slot": "151",
        "type": "t_mapping(t_bytes32,t_struct(AddressSet)2884_storage)"
      },
      {
        "astId": 219,
        "contract": "src/NVMTokenV2.sol:NVMTokenV2",
        "label": "__gap",
        "offset": 0,
        "slot": "152",
        "type": "t_array(t_uint256)49_storage"
      },
      {
        "astId": 925,
        "contract": "src/NVMTokenV2.sol:NVMTokenV2",
        "label": "_balances",
        "offset": 0,
        "slot": "201",
        "type": "t_mapping(t_address,t_uint256)"
      },
      {
        "astId": 931,
        "contract": "src/NVMTokenV2.sol:NVMTokenV2",
        "label": "_allowances",
        "offset": 0,
        "slot": "202",
        "type": "t_mapping(t_address,t_mapping(t_address,t_uint256))"
      },
      {
        "astId": 933,
        "contract": "src/NVMTokenV2.sol:NVMTokenV2",
        "label": "_totalSupply",
        "offset": 0,
        "slot": "203",
        "type": "t_uint256"
      },
      {
        "astId": 935,
        "contract": "src/NVMTokenV2.sol:NVMTokenV2",
        "label": "_name",
        "offset": 0,
        "slot": "204",
        "type": "t_string_storage"
      },
      {
        "astId": 937,
        "contract": "src/NVMTokenV2.sol:NVMTokenV2",
        "label": "_symbol",
        "offset": 0,
        "slot": "205",
        "type": "t_string_storage"
      },
      {
        "astId": 1439,
        "contract": "src/NVMTokenV2.sol:NVMTokenV2",
        "label": "__gap",
        "offset": 0,
        "slot": "206",
        "type": "t_array(t_uint256)45_storage"
      },
      {
        "astId": 1603,
        "contract": "src/NVMTokenV2.sol:NVMTokenV2",
        "label": "__gap",
        "offset": 0,
        "slot": "251",
        "type": "t_array(t_uint256)50_storage"
      },
      {
        "astId": 814,
        "contract": "src/NVMTokenV2.sol:NVMTokenV2",
        "label": "_paused",
        "offset": 0,
        "slot": "301",
        "type": "t_bool"
      },
      {
        "astId": 905,
        "contract": "src/NVMTokenV2.sol:NVMTokenV2",
        "label": "__gap",
        "offset": 0,
        "slot": "302",
        "type": "t_array(t_uint256)49_storage"
      },
      {
        "astId": 1757,
        "contract": "src/NVMTokenV2.sol:NVMTokenV2",
        "label": "__gap",
        "offset": 0,
        "slot": "351",
        "type": "t_array(t_uint256)50_storage"
      },
      {
        "astId": 1979,
        "contract": "src/NVMTokenV2.sol:NVMTokenV2",
        "label": "__gap",
        "offset": 0,
        "slot": "401",
        "type": "t_array(t_uint256)50_storage"
      },
      {
        "astId": 1615,
        "contract": "src/NVMTokenV2.sol:NVMTokenV2",
        "label": "_cap",
        "offset": 0,
        "slot": "451",
        "type": "t_uint256"
      },
      {
        "astId": 1692,
        "contract": "src/NVMTokenV2.sol:NVMTokenV2",
        "label": "__gap",
        "offset": 0,
        "slot": "452",
        "type": "t_array(t_uint256)50_storage"
      },
      {
        "astId": 627,
        "contract": "src/NVMTokenV2.sol:NVMTokenV2",
        "label": "_owner",
        "offset": 0,
        "slot": "502",
        "type": "t_address"
      },
      {
        "astId": 746,
        "contract": "src/NVMTokenV2.sol:NVMTokenV2",
        "label": "__gap",
        "offset": 0,
        "slot": "503",
        "type": "t_array(t_uint256)49_storage"
      },
      {
        "astId": 3200,
        "contract": "src/NVMTokenV2.sol:NVMTokenV2",
        "label": "tokenTransferFeeDivisor",
        "offset": 0,
        "slot": "552",
        "type": "t_uint32"
      },
      {
        "astId": 3202,
        "contract": "src/NVMTokenV2.sol:NVMTokenV2",
        "label": "feeAddress",
        "offset": 4,
        "slot": "552",
        "type": "t_address"
      },
      {
        "astId": 3407,
        "contract": "src/NVMTokenV2.sol:NVMTokenV2",
        "label": "__gap",
        "offset": 0,
        "slot": "553",
        "type": "t_array(t_uint256)50_storage"
      }
    ],
    "types": {
      "t_address": {
        "encoding": "inplace",
        "label": "address",
        "numberOfBytes": "20"
      },
      "t_array(t_bytes32)dyn_storage": {
        "base": "t_bytes32",
        "encoding": "dynamic_array",
        "label": "bytes32[]",
        "numberOfBytes": "32"
      },
      "t_array(t_uint256)45_storage": {
        "base": "t_uint256",
        "encoding": "inplace",
        "label": "uint256[45]",
        "numberOfBytes": "1440"
      },
      "t_array(t_uint256)49_storage": {
        "base": "t_uint256",
        "encoding": "inplace",
        "label": "uint256[49]",
        "numberOfBytes": "1568"
      },
      "t_array(t_uint256)50_storage": {
        "base": "t_uint256",
        "encoding": "inplace",
        "label": "uint256[50]",
        "numberOfBytes": "1600"
      },
      "t_bool": {
        "encoding": "inplace",
        "label": "bool",
        "numberOfBytes": "1"
      },
      "t_bytes32": {
        "encoding": "inplace",
        "label": "bytes32",
        "numberOfBytes": "32"
      },
      "t_mapping(t_address,t_bool)": {
        "encoding": "mapping",
        "key": "t_address",
        "label": "mapping(address => bool)",
        "numberOfBytes": "32",
        "value": "t_bool"
      },
      "t_mapping(t_address,t_mapping(t_address,t_uint256))": {
        "encoding": "mapping",
        "key": "t_address",
        "label": "mapping(address => mapping(address => uint256))",
        "numberOfBytes": "32",
        "value": "t_mapping(t_address,t_uint256)"
      },
      "t_mapping(t_address,t_uint256)": {
        "encoding": "mapping",
        "key": "t_address",
        "label": "mapping(address => uint256)",
        "numberOfBytes": "32",
        "value": "t_uint256"
      },
      "t_mapping(t_bytes32,t_struct(AddressSet)2884_storage)": {
        "encoding": "mapping",
        "key": "t_bytes32",
        "label": "mapping(bytes32 => struct EnumerableSetUpgradeable.AddressSet)",
        "numberOfBytes": "32",
        "value": "t_struct(AddressSet)2884_storage"
      },
      "t_mapping(t_bytes32,t_struct(RoleData)302_storage)": {
        "encoding": "mapping",
        "key": "t_bytes32",
        "label": "mapping(bytes32 => struct AccessControlUpgradeable.RoleData)",
        "numberOfBytes": "32",
        "value": "t_struct(RoleData)302_storage"
      },
      "t_mapping(t_bytes32,t_uint256)": {
        "encoding": "mapping",
        "key": "t_bytes32",
        "label": "mapping(bytes32 => uint256)",
        "numberOfBytes": "32",
        "value": "t_uint256"
      },
      "t_string_storage": {
        "encoding": "bytes",
        "label": "string",
        "numberOfBytes": "32"
      },
      "t_struct(AddressSet)2884_storage": {
        "encoding": "inplace",
        "label": "struct EnumerableSetUpgradeable.AddressSet",
        "members": [
          {
            "astId": 2883,
            "contract": "src/NVMTokenV2.sol:NVMTokenV2",
            "label": "_inner",
            "offset": 0,
            "slot": "0",
            "type": "t_struct(Set)2609_storage"
          }
        ],
        "numberOfBytes": "64"
      },
      "t_struct(RoleData)302_storage": {
        "encoding": "inplace",
        "label": "struct AccessControlUpgradeable.RoleData",
        "members": [
          {
            "astId": 299,
            "contract": "src/NVMTokenV2.sol:NVMTokenV2",
            "label": "members",
            "offset": 0,
            "slot": "0",
            "type": "t_mapping(t_address,t_bool)"
          },
          {
            "astId": 301,
            "contract": "src/NVMTokenV2.sol:NVMTokenV2",
            "label": "adminRole",
            "offset": 0,
            "slot": "1",
            "type": "t_bytes32"
          }
        ],
        "numberOfBytes": "64"
      },
      "t_struct(Set)2609_storage": {
        "encoding": "inplace",
        "label": "struct EnumerableSetUpgradeable.Set",
        "members": [
          {
            "astId": 2604,
            "contract": "src/NVMTokenV2.sol:NVMTokenV2",
            "label": "_values",
            "offset": 0,
            "slot": "0",
            "type": "t_array(t_bytes32)dyn_storage"
          },
          {
            "astId": 2608,
            "contract": "src/NVMTokenV2.sol:NVMTokenV2",
            "label": "_indexes",
            "offset": 0,
            "slot": "1",
            "type": "t_mapping(t_bytes32,t_uint256)"
          }
        ],
        "numberOfBytes": "64"
      },
      "t_uint256": {
        "encoding": "inplace",
        "label": "uint256",
        "numberOfBytes": "32"
      },
      "t_uint32": {
        "encoding": "inplace",
        "label": "uint32",
        "numberOfBytes": "4"
      }
    }
  }
}