{
  "address": "0x0d29A6f33c0209B4d7e12CDCe637FF3c05037967",
  "abi": [
    {
      "anonymous": false,
      "inputs": [
        {
          "indexed": true,
          "internalType": "address",
          "name": "owner",
          "type": "address"
        },
        {
          "indexed": true,
          "internalType": "address",
          "name": "spender",
          "type": "address"
        },
        {
          "indexed": false,
          "internalType": "uint256",
          "name": "value",
          "type": "uint256"
        }
      ],
      "name": "Approval",
      "type": "event"
    },
    {
      "anonymous": false,
      "inputs": [
        {
          "indexed": true,
          "internalType": "address",
          "name": "previousOwner",
          "type": "address"
        },
        {
          "indexed": true,
          "internalType": "address",
          "name": "newOwner",
          "type": "address"
        }
      ],
      "name": "OwnershipTransferred",
      "type": "event"
    },
    {
      "anonymous": false,
      "inputs": [
        {
          "indexed": false,
          "internalType": "address",
          "name": "account",
          "type": "address"
        }
      ],
      "name": "Paused",
      "type": "event"
    },
    {
      "anonymous": false,
      "inputs": [
        {
          "indexed": true,
          "internalType": "bytes32",
          "name": "role",
          "type": "bytes32"
        },
        {
          "indexed": true,
          "internalType": "bytes32",
          "name": "previousAdminRole",
          "type": "bytes32"
        },
        {
          "indexed": true,
          "internalType": "bytes32",
          "name": "newAdminRole",
          "type": "bytes32"
        }
      ],
      "name": "RoleAdminChanged",
      "type": "event"
    },
    {
      "anonymous": false,
      "inputs": [
        {
          "indexed": true,
          "internalType": "bytes32",
          "name": "role",
          "type": "bytes32"
        },
        {
          "indexed": true,
          "internalType": "address",
          "name": "account",
          "type": "address"
        },
        {
          "indexed": true,
          "internalType": "address",
          "name": "sender",
          "type": "address"
        }
      ],
      "name": "RoleGranted",
      "type": "event"
    },
    {
      "anonymous": false,
      "inputs": [
        {
          "indexed": true,
          "internalType": "bytes32",
          "name": "role",
          "type": "bytes32"
        },
        {
          "indexed": true,
          "internalType": "address",
          "name": "account",
          "type": "address"
        },
        {
          "indexed": true,
          "internalType": "address",
          "name": "sender",
          "type": "address"
        }
      ],
      "name": "RoleRevoked",
      "type": "event"
    },
    {
      "anonymous": false,
      "inputs": [
        {
          "indexed": true,
          "internalType": "address",
          "name": "from",
          "type": "address"
        },
        {
          "indexed": true,
          "internalType": "address",
          "name": "to",
          "type": "address"
        },
        {
          "indexed": false,
          "internalType": "uint256",
          "name": "value",
          "type": "uint256"
        }
      ],
      "name": "Transfer",
      "type": "event"
    },
    {
      "anonymous": false,
      "inputs": [
        {
          "indexed": false,
          "internalType": "address",
          "name": "account",
          "type": "address"
        }
      ],
      "name": "Unpaused",
      "type": "event"
    },
    {
      "anonymous": false,
      "inputs": [
        {
          "indexed": false,
          "internalType": "address",
          "name": "newValue",
          "type": "address"
        }
      ],
      "name": "feeWalletAddressChanged",
      "type": "event"
    },
    {
      "anonymous": false,
      "inputs": [
        {
          "indexed": false,
          "internalType": "uint32",
          "name": "newValue",
          "type": "uint32"
        }
      ],
      "name": "mintingFeePercentChanged",
      "type": "event"
    },
    {
      "inputs": [],
      "name": "DEFAULT_ADMIN_ROLE",
      "outputs": [
        {
          "internalType": "bytes32",
          "name": "",
          "type": "bytes32"
        }
      ],
      "stateMutability": "view",
      "type": "function"
    },
    {
      "inputs": [],
      "name": "FEE_EXCLUDED_ROLE",
      "outputs": [
        {
          "internalType": "bytes32",
          "name": "",
          "type": "bytes32"
        }
      ],
      "stateMutability": "view",
      "type": "function"
    },
    {
      "inputs": [],
      "name": "MINTER_ROLE",
      "outputs": [
        {
          "internalType": "bytes32",
          "name": "",
          "type": "bytes32"
        }
      ],
      "stateMutability": "view",
      "type": "function"
    },
    {
      "inputs": [],
      "name": "PAUSER_ROLE",
      "outputs": [
        {
          "internalType": "bytes32",
          "name": "",
          "type": "bytes32"
        }
      ],
      "stateMutability": "view",
      "type": "function"
    },
    {
      "inputs": [
        {
          "internalType": "uint256",
          "name": "cap",
          "type": "uint256"
        }
      ],
      "name": "__initializeNVM",
      "outputs": [],
      "stateMutability": "nonpayable",
      "type": "function"
    },
    {
      "inputs": [
        {
          "internalType": "address",
          "name": "owner",
          "type": "address"
        },
        {
          "internalType": "address",
          "name": "spender",
          "type": "address"
        }
      ],
      "name": "allowance",
      "outputs": [
        {
          "internalType": "uint256",
          "name": "",
          "type": "uint256"
        }
      ],
      "stateMutability": "view",
      "type": "function"
    },
    {
      "inputs": [
        {
          "internalType": "address",
          "name": "spender",
          "type": "address"
        },
        {
          "internalType": "uint256",
          "name": "amount",
          "type": "uint256"
        }
      ],
      "name": "approve",
      "outputs": [
        {
          "internalType": "bool",
          "name": "",
          "type": "bool"
        }
      ],
      "stateMutability": "nonpayable",
      "type": "function"
    },
    {
      "inputs": [
        {
          "internalType": "address",
          "name": "account",
          "type": "address"
        }
      ],
      "name": "balanceOf",
      "outputs": [
        {
          "internalType": "uint256",
          "name": "",
          "type": "uint256"
        }
      ],
      "stateMutability": "view",
      "type": "function"
    },
    {
      "inputs": [
        {
          "internalType": "uint256",
          "name": "amount",
          "type": "uint256"
        }
      ],
      "name": "burn",
      "outputs": [],
      "stateMutability": "nonpayable",
      "type": "function"
    },
    {
      "inputs": [
        {
          "internalType": "address",
          "name": "account",
          "type": "address"
        },
        {
          "internalType": "uint256",
          "name": "amount",
          "type": "uint256"
        }
      ],
      "name": "burnFrom",
      "outputs": [],
      "stateMutability": "nonpayable",
      "type": "function"
    },
    {
      "inputs": [],
      "name": "cap",
      "outputs": [
        {
          "internalType": "uint256",
          "name": "",
          "type": "uint256"
        }
      ],
      "stateMutability": "view",
      "type": "function"
    },
    {
      "inputs": [],
      "name": "decimals",
      "outputs": [
        {
          "internalType": "uint8",
          "name": "",
          "type": "uint8"
        }
      ],
      "stateMutability": "view",
      "type": "function"
    },
    {
      "inputs": [
        {
          "internalType": "address",
          "name": "spender",
          "type": "address"
        },
        {
          "internalType": "uint256",
          "name": "subtractedValue",
          "type": "uint256"
        }
      ],
      "name": "decreaseAllowance",
      "outputs": [
        {
          "internalType": "bool",
          "name": "",
          "type": "bool"
        }
      ],
      "stateMutability": "nonpayable",
      "type": "function"
    },
    {
      "inputs": [],
      "name": "feeAddress",
      "outputs": [
        {
          "internalType": "address",
          "name": "",
          "type": "address"
        }
      ],
      "stateMutability": "view",
      "type": "function"
    },
    {
      "inputs": [],
      "name": "getFeeAddr",
      "outputs": [
        {
          "internalType": "address",
          "name": "",
          "type": "address"
        }
      ],
      "stateMutability": "view",
      "type": "function"
    },
    {
      "inputs": [
        {
          "internalType": "bytes32",
          "name": "role",
          "type": "bytes32"
        }
      ],
      "name": "getRoleAdmin",
      "outputs": [
        {
          "internalType": "bytes32",
          "name": "",
          "type": "bytes32"
        }
      ],
      "stateMutability": "view",
      "type": "function"
    },
    {
      "inputs": [
        {
          "internalType": "bytes32",
          "name": "role",
          "type": "bytes32"
        },
        {
          "internalType": "uint256",
          "name": "index",
          "type": "uint256"
        }
      ],
      "name": "getRoleMember",
      "outputs": [
        {
          "internalType": "address",
          "name": "",
          "type": "address"
        }
      ],
      "stateMutability": "view",
      "type": "function"
    },
    {
      "inputs": [
        {
          "internalType": "bytes32",
          "name": "role",
          "type": "bytes32"
        }
      ],
      "name": "getRoleMemberCount",
      "outputs": [
        {
          "internalType": "uint256",
          "name": "",
          "type": "uint256"
        }
      ],
      "stateMutability": "view",
      "type": "function"
    },
    {
      "inputs": [
        {
          "internalType": "bytes32",
          "name": "role",
          "type": "bytes32"
        },
        {
          "internalType": "address",
          "name": "account",
          "type": "address"
        }
      ],
      "name": "grantRole",
      "outputs": [],
      "stateMutability": "nonpayable",
      "type": "function"
    },
    {
      "inputs": [
        {
          "internalType": "bytes32",
          "name": "role",
          "type": "bytes32"
        },
        {
          "internalType": "address",
          "name": "account",
          "type": "address"
        }
      ],
      "name": "hasRole",
      "outputs": [
        {
          "internalType": "bool",
          "name": "",
          "type": "bool"
        }
      ],
      "stateMutability": "view",
      "type": "function"
    },
    {
      "inputs": [
        {
          "internalType": "address",
          "name": "spender",
          "type": "address"
        },
        {
          "internalType": "uint256",
          "name": "addedValue",
          "type": "uint256"
        }
      ],
      "name": "increaseAllowance",
      "outputs": [
        {
          "internalType": "bool",
          "name": "",
          "type": "bool"
        }
      ],
      "stateMutability": "nonpayable",
      "type": "function"
    },
    {
      "inputs": [
        {
          "internalType": "string",
          "name": "name",
          "type": "string"
        },
        {
          "internalType": "string",
          "name": "symbol",
          "type": "string"
        }
      ],
      "name": "initialize",
      "outputs": [],
      "stateMutability": "nonpayable",
      "type": "function"
    },
    {
      "inputs": [
        {
          "internalType": "address",
          "name": "to",
          "type": "address"
        },
        {
          "internalType": "uint256",
          "name": "amount",
          "type": "uint256"
        }
      ],
      "name": "mint",
      "outputs": [],
      "stateMutability": "nonpayable",
      "type": "function"
    },
    {
      "inputs": [],
      "name": "name",
      "outputs": [
        {
          "internalType": "string",
          "name": "",
          "type": "string"
        }
      ],
      "stateMutability": "view",
      "type": "function"
    },
    {
      "inputs": [],
      "name": "owner",
      "outputs": [
        {
          "internalType": "address",
          "name": "",
          "type": "address"
        }
      ],
      "stateMutability": "view",
      "type": "function"
    },
    {
      "inputs": [],
      "name": "pause",
      "outputs": [],
      "stateMutability": "nonpayable",
      "type": "function"
    },
    {
      "inputs": [],
      "name": "paused",
      "outputs": [
        {
          "internalType": "bool",
          "name": "",
          "type": "bool"
        }
      ],
      "stateMutability": "view",
      "type": "function"
    },
    {
      "inputs": [],
      "name": "renounceOwnership",
      "outputs": [],
      "stateMutability": "nonpayable",
      "type": "function"
    },
    {
      "inputs": [
        {
          "internalType": "bytes32",
          "name": "role",
          "type": "bytes32"
        },
        {
          "internalType": "address",
          "name": "account",
          "type": "address"
        }
      ],
      "name": "renounceRole",
      "outputs": [],
      "stateMutability": "nonpayable",
      "type": "function"
    },
    {
      "inputs": [
        {
          "internalType": "bytes32",
          "name": "role",
          "type": "bytes32"
        },
        {
          "internalType": "address",
          "name": "account",
          "type": "address"
        }
      ],
      "name": "revokeRole",
      "outputs": [],
      "stateMutability": "nonpayable",
      "type": "function"
    },
    {
      "inputs": [
        {
          "internalType": "address",
          "name": "_feeAddress",
          "type": "address"
        }
      ],
      "name": "setFeeWalletAddress",
      "outputs": [],
      "stateMutability": "nonpayable",
      "type": "function"
    },
    {
      "inputs": [
        {
          "internalType": "uint32",
          "name": "_tokenTransferFeeDivisor",
          "type": "uint32"
        }
      ],
      "name": "setTransferFeeDivisor",
      "outputs": [],
      "stateMutability": "nonpayable",
      "type": "function"
    },
    {
      "inputs": [
        {
          "internalType": "bytes4",
          "name": "interfaceId",
          "type": "bytes4"
        }
      ],
      "name": "supportsInterface",
      "outputs": [
        {
          "internalType": "bool",
          "name": "",
          "type": "bool"
        }
      ],
      "stateMutability": "view",
      "type": "function"
    },
    {
      "inputs": [],
      "name": "symbol",
      "outputs": [
        {
          "internalType": "string",
          "name": "",
          "type": "string"
        }
      ],
      "stateMutability": "view",
      "type": "function"
    },
    {
      "inputs": [],
      "name": "tokenTransferFeeDivisor",
      "outputs": [
        {
          "internalType": "uint32",
          "name": "",
          "type": "uint32"
        }
      ],
      "stateMutability": "view",
      "type": "function"
    },
    {
      "inputs": [],
      "name": "totalSupply",
      "outputs": [
        {
          "internalType": "uint256",
          "name": "",
          "type": "uint256"
        }
      ],
      "stateMutability": "view",
      "type": "function"
    },
    {
      "inputs": [
        {
          "internalType": "address",
          "name": "recipient",
          "type": "address"
        },
        {
          "internalType": "uint256",
          "name": "amount",
          "type": "uint256"
        }
      ],
      "name": "transfer",
      "outputs": [
        {
          "internalType": "bool",
          "name": "",
          "type": "bool"
        }
      ],
      "stateMutability": "nonpayable",
      "type": "function"
    },
    {
      "inputs": [
        {
          "internalType": "address",
          "name": "sender",
          "type": "address"
        },
        {
          "internalType": "address",
          "name": "recipient",
          "type": "address"
        },
        {
          "internalType": "uint256",
          "name": "amount",
          "type": "uint256"
        }
      ],
      "name": "transferFrom",
      "outputs": [
        {
          "internalType": "bool",
          "name": "",
          "type": "bool"
        }
      ],
      "stateMutability": "nonpayable",
      "type": "function"
    },
    {
      "inputs": [
        {
          "internalType": "address",
          "name": "newOwner",
          "type": "address"
        }
      ],
      "name": "transferOwnership",
      "outputs": [],
      "stateMutability": "nonpayable",
      "type": "function"
    },
    {
      "inputs": [],
      "name": "unpause",
      "outputs": [],
      "stateMutability": "nonpayable",
      "type": "function"
    }
  ],
  "transactionHash": "0x5cc86d36c7043d9871c15c0e50e8543665e8a16842973854ebec1730df2cf7ff",
  "args": [],
  "numDeployments": 1,
  "solcInputHash": "a810dcbe90792b46cb3f364c78db3bb7",
  "bytecode": "0x608060405234801561001057600080fd5b50612ea3806100206000396000f3fe608060405234801561001057600080fd5b50600436106102c85760003560e01c80635c975abb1161017b578063a457c2d7116100d8578063d547741f1161008c578063e41bf5ea11610071578063e41bf5ea14610535578063e63ab1e914610548578063f2fde38b14610550576102c8565b8063d547741f1461050f578063dd62ed3e14610522576102c8565b8063b38779eb116100bd578063b38779eb146104ec578063ca15c873146104f4578063d539139314610507576102c8565b8063a457c2d7146104c6578063a9059cbb146104d9576102c8565b80638da5cb5b1161012f57806391d148541161011457806391d14854146104a357806395d89b41146104b6578063a217fddf146104be576102c8565b80638da5cb5b146104885780639010d07c14610490576102c8565b8063715018a611610160578063715018a61461046557806379cc67901461046d5780638456cb5914610480576102c8565b80635c975abb1461044a57806370a0823114610452576102c8565b806331503ec41161022957806340c10f19116101dd57806342966c68116101c257806342966c681461041157806349178ad5146104245780634cd88b7614610437576102c8565b806340c10f19146103e957806341275358146103fc576102c8565b806336568abe1161020e57806336568abe146103bb57806339509351146103ce5780633f4ba83a146103e1576102c8565b806331503ec4146103a0578063355274ea146103b3576102c8565b806323b872dd116102805780632dd8175a116102655780632dd8175a1461036e5780632f2ff15d14610376578063313ce5671461038b576102c8565b806323b872dd14610348578063248a9ca31461035b576102c8565b8063095ea7b3116102b1578063095ea7b31461030b5780631804cb041461031e57806318160ddd14610333576102c8565b806301ffc9a7146102cd57806306fdde03146102f6575b600080fd5b6102e06102db36600461223c565b610563565b6040516102ed9190612396565b60405180910390f35b6102fe6105c1565b6040516102ed91906123aa565b6102e06103193660046121b8565b610653565b610326610671565b6040516102ed9190612d32565b61033b61067e565b6040516102ed91906123a1565b6102e061035636600461217d565b610684565b61033b6103693660046121e1565b610724565b61033b610739565b6103896103843660046121f9565b61075d565b005b610393610784565b6040516102ed9190612d43565b6103896103ae366004612131565b610789565b61033b61085a565b6103896103c93660046121f9565b610861565b6102e06103dc3660046121b8565b610883565b6103896108d2565b6103896103f73660046121b8565b610924565b61040461097a565b6040516102ed9190612382565b61038961041f3660046121e1565b610992565b6103896104323660046122dd565b6109a6565b61038961044536600461227c565b610a5c565b6102e0610adc565b61033b610460366004612131565b610ae6565b610389610b01565b61038961047b3660046121b8565b610ba4565b610389610bf4565b610404610c44565b61040461049e36600461221b565b610c54565b6102e06104b13660046121f9565b610c73565b6102fe610c9e565b61033b610cad565b6102e06104d43660046121b8565b610cb2565b6102e06104e73660046121b8565b610d2d565b610404610d41565b61033b6105023660046121e1565b610d59565b61033b610d70565b61038961051d3660046121f9565b610d94565b61033b61053036600461214b565b610d9e565b6103896105433660046121e1565b610dc9565b61033b610ebb565b61038961055e366004612131565b610edf565b60007fffffffff0000000000000000000000000000000000000000000000000000000082167f5a05180f0000000000000000000000000000000000000000000000000000000014806105b957506105b982610fba565b90505b919050565b606060cc80546105d090612e06565b80601f01602080910402602001604051908101604052809291908181526020018280546105fc90612e06565b80156106495780601f1061061e57610100808354040283529160200191610649565b820191906000526020600020905b81548152906001019060200180831161062c57829003601f168201915b5050505050905090565b6000610667610660611010565b8484611014565b5060015b92915050565b6102285463ffffffff1681565b60cb5490565b60006106918484846110c8565b6001600160a01b038416600090815260ca60205260408120816106b2611010565b6001600160a01b03166001600160a01b03168152602001908152602001600020549050828110156106fe5760405162461bcd60e51b81526004016106f590612833565b60405180910390fd5b6107198561070a611010565b6107148685612da8565b611014565b506001949350505050565b60009081526065602052604090206001015490565b7fbcaa5c4620c62b2fedc77ef4fe401724814aeef811d907416a737179a85b1ab281565b6107678282611140565b600082815260976020526040902061077f9082611164565b505050565b601290565b61079660006104b1611010565b6107b25760405162461bcd60e51b81526004016106f590612acd565b6001600160a01b0381166107d85760405162461bcd60e51b81526004016106f59061279f565b61022880547fffffffffffffffff0000000000000000000000000000000000000000ffffffff166401000000006001600160a01b03848116820292909217928390556040517f6f5114b3e5960d863abb3c1a60db83d21c561b7818cdf638383e9b9ea40238f99361084f9392900490911690612382565b60405180910390a150565b6101c35490565b61086b8282611179565b600082815260976020526040902061077f90826111bb565b6000610667610890611010565b848460ca600061089e611010565b6001600160a01b03908116825260208083019390935260409182016000908120918b16815292529020546107149190612d51565b6108fe7f65d7a28e3265b37a6474929f336521b332c1681b933f6cb9f3376673440d862a6104b1611010565b61091a5760405162461bcd60e51b81526004016106f5906125f4565b6109226111d0565b565b6109507f9f2df0fed2c77648de5860a4cc508cd0818c85b8b8a1ab4ceeef8d981c8956a66104b1611010565b61096c5760405162461bcd60e51b81526004016106f5906128c5565b610976828261123f565b5050565b6102285464010000000090046001600160a01b031681565b6109a361099d611010565b82611249565b50565b6109b360006104b1611010565b6109cf5760405162461bcd60e51b81526004016106f590612b87565b60028163ffffffff16116109f55760405162461bcd60e51b81526004016106f59061253a565b61022880547fffffffffffffffffffffffffffffffffffffffffffffffffffffffff000000001663ffffffff83811691909117918290556040517fb4fb343f6573d5bcc1c7ab700665911f5ed2699ecfc6a7d1b1af8405409b22ec9261084f921690612d32565b600054610100900460ff1680610a75575060005460ff16155b610a915760405162461bcd60e51b81526004016106f5906127d6565b600054610100900460ff16158015610abc576000805460ff1961ff0019909116610100171660011790555b610ac6838361132f565b801561077f576000805461ff0019169055505050565b61012d5460ff1690565b6001600160a01b0316600090815260c9602052604090205490565b610b09611010565b6001600160a01b0316610b1a610c44565b6001600160a01b031614610b405760405162461bcd60e51b81526004016106f590612890565b6101f6546040516000916001600160a01b0316907f8be0079c531659141344cd1fd0a4f28419497f9722a3daafe3b4186f6b6457e0908390a36101f680547fffffffffffffffffffffffff0000000000000000000000000000000000000000169055565b6000610bb283610530611010565b905081811015610bd45760405162461bcd60e51b81526004016106f590612922565b610bea83610be0611010565b6107148585612da8565b61077f8383611249565b610c207f65d7a28e3265b37a6474929f336521b332c1681b933f6cb9f3376673440d862a6104b1611010565b610c3c5760405162461bcd60e51b81526004016106f590612b2a565b6109226113db565b6101f6546001600160a01b031690565b6000828152609760205260408120610c6c9083611437565b9392505050565b60009182526065602090815260408084206001600160a01b0393909316845291905290205460ff1690565b606060cd80546105d090612e06565b600081565b60008060ca6000610cc1611010565b6001600160a01b0390811682526020808301939093526040918201600090812091881681529252902054905082811015610d0d5760405162461bcd60e51b81526004016106f590612be4565b610d23610d18611010565b856107148685612da8565b5060019392505050565b6000610667610d3a611010565b84846110c8565b6102285464010000000090046001600160a01b031690565b60008181526097602052604081206105b990611443565b7f9f2df0fed2c77648de5860a4cc508cd0818c85b8b8a1ab4ceeef8d981c8956a681565b61086b828261144e565b6001600160a01b03918216600090815260ca6020908152604080832093909416825291909152205490565b600054610100900460ff1680610de2575060005460ff16155b610dfe5760405162461bcd60e51b81526004016106f5906127d6565b600054610100900460ff16158015610e29576000805460ff1961ff0019909116610100171660011790555b610e9d6040518060400160405280600f81526020017f4e6f76656d2050726f20546f6b656e00000000000000000000000000000000008152506040518060400160405280600381526020017f4e564d000000000000000000000000000000000000000000000000000000000081525061132f565b610ea68261146d565b8015610976576000805461ff00191690555050565b7f65d7a28e3265b37a6474929f336521b332c1681b933f6cb9f3376673440d862a81565b610ee7611010565b6001600160a01b0316610ef8610c44565b6001600160a01b031614610f1e5760405162461bcd60e51b81526004016106f590612890565b6001600160a01b038116610f445760405162461bcd60e51b81526004016106f590612651565b6101f6546040516001600160a01b038084169216907f8be0079c531659141344cd1fd0a4f28419497f9722a3daafe3b4186f6b6457e090600090a36101f680547fffffffffffffffffffffffff0000000000000000000000000000000000000000166001600160a01b0392909216919091179055565b60007fffffffff0000000000000000000000000000000000000000000000000000000082167f7965db0b0000000000000000000000000000000000000000000000000000000014806105b957506105b982611508565b3390565b6001600160a01b03831661103a5760405162461bcd60e51b81526004016106f590612a70565b6001600160a01b0382166110605760405162461bcd60e51b81526004016106f5906126ae565b6001600160a01b03808416600081815260ca602090815260408083209487168084529490915290819020849055517f8c5be1e5ebec7d5bd14f71427d1e84f3dd0314c0f7b2291e5b200ac8c7c3b925906110bb9085906123a1565b60405180910390a3505050565b6110f47fbcaa5c4620c62b2fedc77ef4fe401724814aeef811d907416a737179a85b1ab26104b1611010565b1561110957611104838383611552565b61077f565b61111c83836111178461167a565b611552565b6102285461077f90849064010000000090046001600160a01b03166111178461168f565b61114982610724565b61115a81611155611010565b6116ab565b61077f838361170f565b6000610c6c836001600160a01b038416611796565b611181611010565b6001600160a01b0316816001600160a01b0316146111b15760405162461bcd60e51b81526004016106f590612c41565b61097682826117e0565b6000610c6c836001600160a01b038416611865565b6111d8610adc565b6111f45760405162461bcd60e51b81526004016106f590612503565b61012d805460ff191690557f5db9ee0a495bf2e6ff9c91a7834c1ba4fdd244a5e8aa4e537bd38aeae4b073aa611228611010565b6040516112359190612382565b60405180910390a1565b610976828261197c565b6001600160a01b03821661126f5760405162461bcd60e51b81526004016106f59061297f565b61127b826000836119bf565b6001600160a01b038216600090815260c96020526040902054818110156112b45760405162461bcd60e51b81526004016106f590612597565b6112be8282612da8565b6001600160a01b038416600090815260c9602052604081209190915560cb80548492906112ec908490612da8565b90915550506040516000906001600160a01b038516907fddf252ad1be2c89b69c2b068fc378daa952ba7f163c4a11628f55a4df523b3ef906110bb9086906123a1565b600054610100900460ff1680611348575060005460ff16155b6113645760405162461bcd60e51b81526004016106f5906127d6565b600054610100900460ff1615801561138f576000805460ff1961ff0019909116610100171660011790555b6113976119ca565b61139f6119ca565b6113a76119ca565b6113af6119ca565b6113b98383611a3e565b6113c16119ca565b6113c9611adc565b6113d16119ca565b610ac68383611b5b565b6113e3610adc565b156114005760405162461bcd60e51b81526004016106f590612768565b61012d805460ff191660011790557f62e78cea01bee320cd4e420270b5ea74000d11b0c9f74754ebdbfc544b05a258611228611010565b6000610c6c8383611c25565b60006105b982611c7e565b61145782610724565b61146381611155611010565b61077f83836117e0565b600054610100900460ff1680611486575060005460ff16155b6114a25760405162461bcd60e51b81526004016106f5906127d6565b600054610100900460ff161580156114cd576000805460ff1961ff0019909116610100171660011790555b600082116114ed5760405162461bcd60e51b81526004016106f5906124cc565b6101c38290558015610976576000805461ff00191690555050565b7fffffffff0000000000000000000000000000000000000000000000000000000081167f01ffc9a70000000000000000000000000000000000000000000000000000000014919050565b6001600160a01b0383166115785760405162461bcd60e51b81526004016106f5906129dc565b6001600160a01b03821661159e5760405162461bcd60e51b81526004016106f59061246f565b6115a98383836119bf565b6001600160a01b038316600090815260c96020526040902054818110156115e25760405162461bcd60e51b81526004016106f59061270b565b6115ec8282612da8565b6001600160a01b03808616600090815260c960205260408082209390935590851681529081208054849290611622908490612d51565b92505081905550826001600160a01b0316846001600160a01b03167fddf252ad1be2c89b69c2b068fc378daa952ba7f163c4a11628f55a4df523b3ef8460405161166c91906123a1565b60405180910390a350505050565b60006105b96116888361168f565b8390611c82565b610228546000906105b990839063ffffffff90811690611c8e16565b6116b58282610c73565b610976576116cd816001600160a01b03166014611c9a565b6116d8836020611c9a565b6040516020016116e9929190612301565b60408051601f198184030181529082905262461bcd60e51b82526106f5916004016123aa565b6117198282610c73565b6109765760008281526065602090815260408083206001600160a01b03851684529091529020805460ff19166001179055611752611010565b6001600160a01b0316816001600160a01b0316837f2f8788117e7eff1d82e926ec794901d17c78024a50270940304540a733656f0d60405160405180910390a45050565b60006117a28383611ed9565b6117d85750815460018181018455600084815260208082209093018490558454848252828601909352604090209190915561066b565b50600061066b565b6117ea8282610c73565b156109765760008281526065602090815260408083206001600160a01b03851684529091529020805460ff19169055611821611010565b6001600160a01b0316816001600160a01b0316837ff6391f5c32d9c69d2a47ea670b442974b53935d1edc7fd64eb21e047a839171b60405160405180910390a45050565b60008181526001830160205260408120548015611972576000611889600183612da8565b855490915060009061189d90600190612da8565b905060008660000182815481106118c457634e487b7160e01b600052603260045260246000fd5b90600052602060002001549050808760000184815481106118f557634e487b7160e01b600052603260045260246000fd5b60009182526020808320909101929092558281526001890190915260409020849055865487908061193657634e487b7160e01b600052603160045260246000fd5b6001900381819060005260206000200160009055905586600101600087815260200190815260200160002060009055600194505050505061066b565b600091505061066b565b61198461085a565b8161198d61067e565b6119979190612d51565b11156119b55760405162461bcd60e51b81526004016106f590612a39565b6109768282611ef1565b61077f838383611fb1565b600054610100900460ff16806119e3575060005460ff16155b6119ff5760405162461bcd60e51b81526004016106f5906127d6565b600054610100900460ff16158015611a2a576000805460ff1961ff0019909116610100171660011790555b80156109a3576000805461ff001916905550565b600054610100900460ff1680611a57575060005460ff16155b611a735760405162461bcd60e51b81526004016106f5906127d6565b600054610100900460ff16158015611a9e576000805460ff1961ff0019909116610100171660011790555b8251611ab19060cc906020860190612000565b508151611ac59060cd906020850190612000565b50801561077f576000805461ff0019169055505050565b600054610100900460ff1680611af5575060005460ff16155b611b115760405162461bcd60e51b81526004016106f5906127d6565b600054610100900460ff16158015611b3c576000805460ff1961ff0019909116610100171660011790555b61012d805460ff1916905580156109a3576000805461ff001916905550565b600054610100900460ff1680611b74575060005460ff16155b611b905760405162461bcd60e51b81526004016106f5906127d6565b600054610100900460ff16158015611bbb576000805460ff1961ff0019909116610100171660011790555b611bcd6000611bc8611010565b611fbc565b611bf97f9f2df0fed2c77648de5860a4cc508cd0818c85b8b8a1ab4ceeef8d981c8956a6611bc8611010565b610ac67f65d7a28e3265b37a6474929f336521b332c1681b933f6cb9f3376673440d862a611bc8611010565b81546000908210611c485760405162461bcd60e51b81526004016106f5906123dd565b826000018281548110611c6b57634e487b7160e01b600052603260045260246000fd5b9060005260206000200154905092915050565b5490565b6000610c6c8284612da8565b6000610c6c8284612d69565b60606000611ca9836002612d89565b611cb4906002612d51565b67ffffffffffffffff811115611cda57634e487b7160e01b600052604160045260246000fd5b6040519080825280601f01601f191660200182016040528015611d04576020820181803683370190505b5090507f300000000000000000000000000000000000000000000000000000000000000081600081518110611d4957634e487b7160e01b600052603260045260246000fd5b60200101907effffffffffffffffffffffffffffffffffffffffffffffffffffffffffffff1916908160001a9053507f780000000000000000000000000000000000000000000000000000000000000081600181518110611dba57634e487b7160e01b600052603260045260246000fd5b60200101907effffffffffffffffffffffffffffffffffffffffffffffffffffffffffffff1916908160001a9053506000611df6846002612d89565b611e01906001612d51565b90505b6001811115611eba577f303132333435363738396162636465660000000000000000000000000000000085600f1660108110611e5057634e487b7160e01b600052603260045260246000fd5b1a60f81b828281518110611e7457634e487b7160e01b600052603260045260246000fd5b60200101907effffffffffffffffffffffffffffffffffffffffffffffffffffffffffffff1916908160001a90535060049490941c93611eb381612def565b9050611e04565b508315610c6c5760405162461bcd60e51b81526004016106f59061243a565b60009081526001919091016020526040902054151590565b6001600160a01b038216611f175760405162461bcd60e51b81526004016106f590612c9e565b611f23600083836119bf565b8060cb6000828254611f359190612d51565b90915550506001600160a01b038216600090815260c9602052604081208054839290611f62908490612d51565b90915550506040516001600160a01b038316906000907fddf252ad1be2c89b69c2b068fc378daa952ba7f163c4a11628f55a4df523b3ef90611fa59085906123a1565b60405180910390a35050565b61077f838383611fc6565b6107678282611ff6565b611fd183838361077f565b611fd9610adc565b1561077f5760405162461bcd60e51b81526004016106f590612cd5565b610976828261170f565b82805461200c90612e06565b90600052602060002090601f01602090048101928261202e5760008555612074565b82601f1061204757805160ff1916838001178555612074565b82800160010185558215612074579182015b82811115612074578251825591602001919060010190612059565b50612080929150612084565b5090565b5b808211156120805760008155600101612085565b80356001600160a01b03811681146105bc57600080fd5b600082601f8301126120c0578081fd5b813567ffffffffffffffff808211156120db576120db612e57565b6040516020601f19601f85011682010181811083821117156120ff576120ff612e57565b604052828152848301602001861015612116578384fd5b82602086016020830137918201602001929092529392505050565b600060208284031215612142578081fd5b610c6c82612099565b6000806040838503121561215d578081fd5b61216683612099565b915061217460208401612099565b90509250929050565b600080600060608486031215612191578081fd5b61219a84612099565b92506121a860208501612099565b9150604084013590509250925092565b600080604083850312156121ca578182fd5b6121d383612099565b946020939093013593505050565b6000602082840312156121f2578081fd5b5035919050565b6000806040838503121561220b578182fd5b8235915061217460208401612099565b6000806040838503121561222d578182fd5b50508035926020909101359150565b60006020828403121561224d578081fd5b81357fffffffff0000000000000000000000000000000000000000000000000000000081168114610c6c578182fd5b6000806040838503121561228e578182fd5b823567ffffffffffffffff808211156122a5578384fd5b6122b1868387016120b0565b935060208501359150808211156122c6578283fd5b506122d3858286016120b0565b9150509250929050565b6000602082840312156122ee578081fd5b813563ffffffff81168114610c6c578182fd5b60007f416363657373436f6e74726f6c3a206163636f756e742000000000000000000082528351612339816017850160208801612dbf565b7f206973206d697373696e6720726f6c65200000000000000000000000000000006017918401918201528351612376816028840160208801612dbf565b01602801949350505050565b6001600160a01b0391909116815260200190565b901515815260200190565b90815260200190565b60006020825282518060208401526123c9816040850160208701612dbf565b601f01601f19169190910160400192915050565b60208082526022908201527f456e756d657261626c655365743a20696e646578206f7574206f6620626f756e60408201527f6473000000000000000000000000000000000000000000000000000000000000606082015260800190565b6020808252818101527f537472696e67733a20686578206c656e67746820696e73756666696369656e74604082015260600190565b60208082526023908201527f45524332303a207472616e7366657220746f20746865207a65726f206164647260408201527f6573730000000000000000000000000000000000000000000000000000000000606082015260800190565b60208082526015908201527f45524332304361707065643a2063617020697320300000000000000000000000604082015260600190565b60208082526014908201527f5061757361626c653a206e6f7420706175736564000000000000000000000000604082015260600190565b60208082526031908201527f546f6b656e207472616e73666572206665652064697669736f72206d7573742060408201527f62652067726561746572207468616e2030000000000000000000000000000000606082015260800190565b60208082526022908201527f45524332303a206275726e20616d6f756e7420657863656564732062616c616e60408201527f6365000000000000000000000000000000000000000000000000000000000000606082015260800190565b60208082526039908201527f45524332305072657365744d696e7465725061757365723a206d75737420686160408201527f76652070617573657220726f6c6520746f20756e706175736500000000000000606082015260800190565b60208082526026908201527f4f776e61626c653a206e6577206f776e657220697320746865207a65726f206160408201527f6464726573730000000000000000000000000000000000000000000000000000606082015260800190565b60208082526022908201527f45524332303a20617070726f766520746f20746865207a65726f20616464726560408201527f7373000000000000000000000000000000000000000000000000000000000000606082015260800190565b60208082526026908201527f45524332303a207472616e7366657220616d6f756e742065786365656473206260408201527f616c616e63650000000000000000000000000000000000000000000000000000606082015260800190565b60208082526010908201527f5061757361626c653a2070617573656400000000000000000000000000000000604082015260600190565b6020808252601b908201527f7a65726f2061646472657373206973206e6f7420616c6c6f7765640000000000604082015260600190565b6020808252602e908201527f496e697469616c697a61626c653a20636f6e747261637420697320616c72656160408201527f647920696e697469616c697a6564000000000000000000000000000000000000606082015260800190565b60208082526028908201527f45524332303a207472616e7366657220616d6f756e742065786365656473206160408201527f6c6c6f77616e6365000000000000000000000000000000000000000000000000606082015260800190565b6020808252818101527f4f776e61626c653a2063616c6c6572206973206e6f7420746865206f776e6572604082015260600190565b60208082526036908201527f45524332305072657365744d696e7465725061757365723a206d75737420686160408201527f7665206d696e74657220726f6c6520746f206d696e7400000000000000000000606082015260800190565b60208082526024908201527f45524332303a206275726e20616d6f756e74206578636565647320616c6c6f7760408201527f616e636500000000000000000000000000000000000000000000000000000000606082015260800190565b60208082526021908201527f45524332303a206275726e2066726f6d20746865207a65726f2061646472657360408201527f7300000000000000000000000000000000000000000000000000000000000000606082015260800190565b60208082526025908201527f45524332303a207472616e736665722066726f6d20746865207a65726f20616460408201527f6472657373000000000000000000000000000000000000000000000000000000606082015260800190565b60208082526019908201527f45524332304361707065643a2063617020657863656564656400000000000000604082015260600190565b60208082526024908201527f45524332303a20617070726f76652066726f6d20746865207a65726f2061646460408201527f7265737300000000000000000000000000000000000000000000000000000000606082015260800190565b60208082526036908201527f43616c6c6572206d75737420686176652061646d696e20726f6c6520746f207360408201527f6574206d696e74696e6720666565206164647265737300000000000000000000606082015260800190565b60208082526037908201527f45524332305072657365744d696e7465725061757365723a206d75737420686160408201527f76652070617573657220726f6c6520746f207061757365000000000000000000606082015260800190565b60208082526036908201527f43616c6c6572206d75737420686176652061646d696e20726f6c6520746f207360408201527f6574206d696e74696e67206665652070657263656e7400000000000000000000606082015260800190565b60208082526025908201527f45524332303a2064656372656173656420616c6c6f77616e63652062656c6f7760408201527f207a65726f000000000000000000000000000000000000000000000000000000606082015260800190565b6020808252602f908201527f416363657373436f6e74726f6c3a2063616e206f6e6c792072656e6f756e636560408201527f20726f6c657320666f722073656c660000000000000000000000000000000000606082015260800190565b6020808252601f908201527f45524332303a206d696e7420746f20746865207a65726f206164647265737300604082015260600190565b6020808252602a908201527f45524332305061757361626c653a20746f6b656e207472616e7366657220776860408201527f696c652070617573656400000000000000000000000000000000000000000000606082015260800190565b63ffffffff91909116815260200190565b60ff91909116815260200190565b60008219821115612d6457612d64612e41565b500190565b600082612d8457634e487b7160e01b81526012600452602481fd5b500490565b6000816000190483118215151615612da357612da3612e41565b500290565b600082821015612dba57612dba612e41565b500390565b60005b83811015612dda578181015183820152602001612dc2565b83811115612de9576000848401525b50505050565b600081612dfe57612dfe612e41565b506000190190565b600281046001821680612e1a57607f821691505b60208210811415612e3b57634e487b7160e01b600052602260045260246000fd5b50919050565b634e487b7160e01b600052601160045260246000fd5b634e487b7160e01b600052604160045260246000fdfea264697066735822122034416630ddf11255fba96e183b510fcdc6432409c334cc7419e1621f53850a9e64736f6c63430008000033",
  "devdoc": {
    "details": "this contract is a Pausable ERC20 token with Burn and Mint functions. By implementing EnhancedMinterPauser this contract also includes external methods for setting a new implementation contract for the Proxy. NOTE: All calls to this contract should be made through the proxy, including admin actions. Any call to transfer against this contract should fail.",
    "kind": "dev",
    "methods": {
      "allowance(address,address)": {
        "details": "See {IERC20-allowance}."
      },
      "approve(address,uint256)": {
        "details": "See {IERC20-approve}. Requirements: - `spender` cannot be the zero address."
      },
      "balanceOf(address)": {
        "details": "See {IERC20-balanceOf}."
      },
      "burn(uint256)": {
        "details": "Destroys `amount` tokens from the caller. See {ERC20-_burn}."
      },
      "burnFrom(address,uint256)": {
        "details": "Destroys `amount` tokens from `account`, deducting from the caller's allowance. See {ERC20-_burn} and {ERC20-allowance}. Requirements: - the caller must have allowance for ``accounts``'s tokens of at least `amount`."
      },
      "cap()": {
        "details": "Returns the cap on the token's total supply."
      },
      "decimals()": {
        "details": "Returns the number of decimals used to get its user representation. For example, if `decimals` equals `2`, a balance of `505` tokens should be displayed to a user as `5,05` (`505 / 10 ** 2`). Tokens usually opt for a value of 18, imitating the relationship between Ether and Wei. This is the value {ERC20} uses, unless this function is overridden; NOTE: This information is only used for _display_ purposes: it in no way affects any of the arithmetic of the contract, including {IERC20-balanceOf} and {IERC20-transfer}."
      },
      "decreaseAllowance(address,uint256)": {
        "details": "Atomically decreases the allowance granted to `spender` by the caller. This is an alternative to {approve} that can be used as a mitigation for problems described in {IERC20-approve}. Emits an {Approval} event indicating the updated allowance. Requirements: - `spender` cannot be the zero address. - `spender` must have allowance for the caller of at least `subtractedValue`."
      },
      "getRoleAdmin(bytes32)": {
        "details": "Returns the admin role that controls `role`. See {grantRole} and {revokeRole}. To change a role's admin, use {_setRoleAdmin}."
      },
      "getRoleMember(bytes32,uint256)": {
        "details": "Returns one of the accounts that have `role`. `index` must be a value between 0 and {getRoleMemberCount}, non-inclusive. Role bearers are not sorted in any particular way, and their ordering may change at any point. WARNING: When using {getRoleMember} and {getRoleMemberCount}, make sure you perform all queries on the same block. See the following https://forum.openzeppelin.com/t/iterating-over-elements-on-enumerableset-in-openzeppelin-contracts/2296[forum post] for more information."
      },
      "getRoleMemberCount(bytes32)": {
        "details": "Returns the number of accounts that have `role`. Can be used together with {getRoleMember} to enumerate all bearers of a role."
      },
      "grantRole(bytes32,address)": {
        "details": "Overload {grantRole} to track enumerable memberships"
      },
      "hasRole(bytes32,address)": {
        "details": "Returns `true` if `account` has been granted `role`."
      },
      "increaseAllowance(address,uint256)": {
        "details": "Atomically increases the allowance granted to `spender` by the caller. This is an alternative to {approve} that can be used as a mitigation for problems described in {IERC20-approve}. Emits an {Approval} event indicating the updated allowance. Requirements: - `spender` cannot be the zero address."
      },
      "mint(address,uint256)": {
        "details": "Creates `amount` new tokens for `to`. See {ERC20-_mint}. Requirements: - the caller must have the `MINTER_ROLE`."
      },
      "name()": {
        "details": "Returns the name of the token."
      },
      "owner()": {
        "details": "Returns the address of the current owner."
      },
      "pause()": {
        "details": "Pauses all token transfers. See {ERC20Pausable} and {Pausable-_pause}. Requirements: - the caller must have the `PAUSER_ROLE`."
      },
      "paused()": {
        "details": "Returns true if the contract is paused, and false otherwise."
      },
      "renounceOwnership()": {
        "details": "Leaves the contract without owner. It will not be possible to call `onlyOwner` functions anymore. Can only be called by the current owner. NOTE: Renouncing ownership will leave the contract without an owner, thereby removing any functionality that is only available to the owner."
      },
      "renounceRole(bytes32,address)": {
        "details": "Overload {renounceRole} to track enumerable memberships"
      },
      "revokeRole(bytes32,address)": {
        "details": "Overload {revokeRole} to track enumerable memberships"
      },
      "setFeeWalletAddress(address)": {
        "details": "set the wallet address where fees will be collected"
      },
      "setTransferFeeDivisor(uint32)": {
        "details": "sets the transfer fee example: divisor 400 would equal to 0,05 percent; 1/400 = 0,0025/100"
      },
      "supportsInterface(bytes4)": {
        "details": "See {IERC165-supportsInterface}."
      },
      "symbol()": {
        "details": "Returns the symbol of the token, usually a shorter version of the name."
      },
      "totalSupply()": {
        "details": "See {IERC20-totalSupply}."
      },
      "transfer(address,uint256)": {
        "details": "See {IERC20-transfer}. Requirements: - `recipient` cannot be the zero address. - the caller must have a balance of at least `amount`."
      },
      "transferFrom(address,address,uint256)": {
        "details": "See {IERC20-transferFrom}. Emits an {Approval} event indicating the updated allowance. This is not required by the EIP. See the note at the beginning of {ERC20}. Requirements: - `sender` and `recipient` cannot be the zero address. - `sender` must have a balance of at least `amount`. - the caller must have allowance for ``sender``'s tokens of at least `amount`."
      },
      "transferOwnership(address)": {
        "details": "Transfers ownership of the contract to a new account (`newOwner`). Can only be called by the current owner."
      },
      "unpause()": {
        "details": "Unpauses all token transfers. See {ERC20Pausable} and {Pausable-_unpause}. Requirements: - the caller must have the `PAUSER_ROLE`."
      }
    },
    "title": "NNN Gold Token",
    "version": 1
  },
  "userdoc": {
    "kind": "user",
    "methods": {},
    "version": 1
  },
  "storageLayout": {
    "storage": [
      {
        "astId": 753,
        "contract": "src/NVMToken.sol:NVMToken",
        "label": "_initialized",
        "offset": 0,
        "slot": "0",
        "type": "t_bool"
      },
      {
        "astId": 756,
        "contract": "src/NVMToken.sol:NVMToken",
        "label": "_initializing",
        "offset": 1,
        "slot": "0",
        "type": "t_bool"
      },
      {
        "astId": 2024,
        "contract": "src/NVMToken.sol:NVMToken",
        "label": "__gap",
        "offset": 0,
        "slot": "1",
        "type": "t_array(t_uint256)50_storage"
      },
      {
        "astId": 2273,
        "contract": "src/NVMToken.sol:NVMToken",
        "label": "__gap",
        "offset": 0,
        "slot": "51",
        "type": "t_array(t_uint256)50_storage"
      },
      {
        "astId": 307,
        "contract": "src/NVMToken.sol:NVMToken",
        "label": "_roles",
        "offset": 0,
        "slot": "101",
        "type": "t_mapping(t_bytes32,t_struct(RoleData)302_storage)"
      },
      {
        "astId": 615,
        "contract": "src/NVMToken.sol:NVMToken",
        "label": "__gap",
        "offset": 0,
        "slot": "102",
        "type": "t_array(t_uint256)49_storage"
      },
      {
        "astId": 62,
        "contract": "src/NVMToken.sol:NVMToken",
        "label": "_roleMembers",
        "offset": 0,
        "slot": "151",
        "type": "t_mapping(t_bytes32,t_struct(AddressSet)2884_storage)"
      },
      {
        "astId": 219,
        "contract": "src/NVMToken.sol:NVMToken",
        "label": "__gap",
        "offset": 0,
        "slot": "152",
        "type": "t_array(t_uint256)49_storage"
      },
      {
        "astId": 925,
        "contract": "src/NVMToken.sol:NVMToken",
        "label": "_balances",
        "offset": 0,
        "slot": "201",
        "type": "t_mapping(t_address,t_uint256)"
      },
      {
        "astId": 931,
        "contract": "src/NVMToken.sol:NVMToken",
        "label": "_allowances",
        "offset": 0,
        "slot": "202",
        "type": "t_mapping(t_address,t_mapping(t_address,t_uint256))"
      },
      {
        "astId": 933,
        "contract": "src/NVMToken.sol:NVMToken",
        "label": "_totalSupply",
        "offset": 0,
        "slot": "203",
        "type": "t_uint256"
      },
      {
        "astId": 935,
        "contract": "src/NVMToken.sol:NVMToken",
        "label": "_name",
        "offset": 0,
        "slot": "204",
        "type": "t_string_storage"
      },
      {
        "astId": 937,
        "contract": "src/NVMToken.sol:NVMToken",
        "label": "_symbol",
        "offset": 0,
        "slot": "205",
        "type": "t_string_storage"
      },
      {
        "astId": 1439,
        "contract": "src/NVMToken.sol:NVMToken",
        "label": "__gap",
        "offset": 0,
        "slot": "206",
        "type": "t_array(t_uint256)45_storage"
      },
      {
        "astId": 1603,
        "contract": "src/NVMToken.sol:NVMToken",
        "label": "__gap",
        "offset": 0,
        "slot": "251",
        "type": "t_array(t_uint256)50_storage"
      },
      {
        "astId": 814,
        "contract": "src/NVMToken.sol:NVMToken",
        "label": "_paused",
        "offset": 0,
        "slot": "301",
        "type": "t_bool"
      },
      {
        "astId": 905,
        "contract": "src/NVMToken.sol:NVMToken",
        "label": "__gap",
        "offset": 0,
        "slot": "302",
        "type": "t_array(t_uint256)49_storage"
      },
      {
        "astId": 1757,
        "contract": "src/NVMToken.sol:NVMToken",
        "label": "__gap",
        "offset": 0,
        "slot": "351",
        "type": "t_array(t_uint256)50_storage"
      },
      {
        "astId": 1979,
        "contract": "src/NVMToken.sol:NVMToken",
        "label": "__gap",
        "offset": 0,
        "slot": "401",
        "type": "t_array(t_uint256)50_storage"
      },
      {
        "astId": 1615,
        "contract": "src/NVMToken.sol:NVMToken",
        "label": "_cap",
        "offset": 0,
        "slot": "451",
        "type": "t_uint256"
      },
      {
        "astId": 1692,
        "contract": "src/NVMToken.sol:NVMToken",
        "label": "__gap",
        "offset": 0,
        "slot": "452",
        "type": "t_array(t_uint256)50_storage"
      },
      {
        "astId": 627,
        "contract": "src/NVMToken.sol:NVMToken",
        "label": "_owner",
        "offset": 0,
        "slot": "502",
        "type": "t_address"
      },
      {
        "astId": 746,
        "contract": "src/NVMToken.sol:NVMToken",
        "label": "__gap",
        "offset": 0,
        "slot": "503",
        "type": "t_array(t_uint256)49_storage"
      },
      {
        "astId": 3134,
        "contract": "src/NVMToken.sol:NVMToken",
        "label": "tokenTransferFeeDivisor",
        "offset": 0,
        "slot": "552",
        "type": "t_uint32"
      },
      {
        "astId": 3136,
        "contract": "src/NVMToken.sol:NVMToken",
        "label": "feeAddress",
        "offset": 4,
        "slot": "552",
        "type": "t_address"
      },
      {
        "astId": 3358,
        "contract": "src/NVMToken.sol:NVMToken",
        "label": "__gap",
        "offset": 0,
        "slot": "553",
        "type": "t_array(t_uint256)50_storage"
      }
    ],
    "types": {
      "t_address": {
        "encoding": "inplace",
        "label": "address",
        "numberOfBytes": "20"
      },
      "t_array(t_bytes32)dyn_storage": {
        "base": "t_bytes32",
        "encoding": "dynamic_array",
        "label": "bytes32[]",
        "numberOfBytes": "32"
      },
      "t_array(t_uint256)45_storage": {
        "base": "t_uint256",
        "encoding": "inplace",
        "label": "uint256[45]",
        "numberOfBytes": "1440"
      },
      "t_array(t_uint256)49_storage": {
        "base": "t_uint256",
        "encoding": "inplace",
        "label": "uint256[49]",
        "numberOfBytes": "1568"
      },
      "t_array(t_uint256)50_storage": {
        "base": "t_uint256",
        "encoding": "inplace",
        "label": "uint256[50]",
        "numberOfBytes": "1600"
      },
      "t_bool": {
        "encoding": "inplace",
        "label": "bool",
        "numberOfBytes": "1"
      },
      "t_bytes32": {
        "encoding": "inplace",
        "label": "bytes32",
        "numberOfBytes": "32"
      },
      "t_mapping(t_address,t_bool)": {
        "encoding": "mapping",
        "key": "t_address",
        "label": "mapping(address => bool)",
        "numberOfBytes": "32",
        "value": "t_bool"
      },
      "t_mapping(t_address,t_mapping(t_address,t_uint256))": {
        "encoding": "mapping",
        "key": "t_address",
        "label": "mapping(address => mapping(address => uint256))",
        "numberOfBytes": "32",
        "value": "t_mapping(t_address,t_uint256)"
      },
      "t_mapping(t_address,t_uint256)": {
        "encoding": "mapping",
        "key": "t_address",
        "label": "mapping(address => uint256)",
        "numberOfBytes": "32",
        "value": "t_uint256"
      },
      "t_mapping(t_bytes32,t_struct(AddressSet)2884_storage)": {
        "encoding": "mapping",
        "key": "t_bytes32",
        "label": "mapping(bytes32 => struct EnumerableSetUpgradeable.AddressSet)",
        "numberOfBytes": "32",
        "value": "t_struct(AddressSet)2884_storage"
      },
      "t_mapping(t_bytes32,t_struct(RoleData)302_storage)": {
        "encoding": "mapping",
        "key": "t_bytes32",
        "label": "mapping(bytes32 => struct AccessControlUpgradeable.RoleData)",
        "numberOfBytes": "32",
        "value": "t_struct(RoleData)302_storage"
      },
      "t_mapping(t_bytes32,t_uint256)": {
        "encoding": "mapping",
        "key": "t_bytes32",
        "label": "mapping(bytes32 => uint256)",
        "numberOfBytes": "32",
        "value": "t_uint256"
      },
      "t_string_storage": {
        "encoding": "bytes",
        "label": "string",
        "numberOfBytes": "32"
      },
      "t_struct(AddressSet)2884_storage": {
        "encoding": "inplace",
        "label": "struct EnumerableSetUpgradeable.AddressSet",
        "members": [
          {
            "astId": 2883,
            "contract": "src/NVMToken.sol:NVMToken",
            "label": "_inner",
            "offset": 0,
            "slot": "0",
            "type": "t_struct(Set)2609_storage"
          }
        ],
        "numberOfBytes": "64"
      },
      "t_struct(RoleData)302_storage": {
        "encoding": "inplace",
        "label": "struct AccessControlUpgradeable.RoleData",
        "members": [
          {
            "astId": 299,
            "contract": "src/NVMToken.sol:NVMToken",
            "label": "members",
            "offset": 0,
            "slot": "0",
            "type": "t_mapping(t_address,t_bool)"
          },
          {
            "astId": 301,
            "contract": "src/NVMToken.sol:NVMToken",
            "label": "adminRole",
            "offset": 0,
            "slot": "1",
            "type": "t_bytes32"
          }
        ],
        "numberOfBytes": "64"
      },
      "t_struct(Set)2609_storage": {
        "encoding": "inplace",
        "label": "struct EnumerableSetUpgradeable.Set",
        "members": [
          {
            "astId": 2604,
            "contract": "src/NVMToken.sol:NVMToken",
            "label": "_values",
            "offset": 0,
            "slot": "0",
            "type": "t_array(t_bytes32)dyn_storage"
          },
          {
            "astId": 2608,
            "contract": "src/NVMToken.sol:NVMToken",
            "label": "_indexes",
            "offset": 0,
            "slot": "1",
            "type": "t_mapping(t_bytes32,t_uint256)"
          }
        ],
        "numberOfBytes": "64"
      },
      "t_uint256": {
        "encoding": "inplace",
        "label": "uint256",
        "numberOfBytes": "32"
      },
      "t_uint32": {
        "encoding": "inplace",
        "label": "uint32",
        "numberOfBytes": "4"
      }
    }
  }
}